{
  "_format": "hh-sol-artifact-1",
  "contractName": "HackSpace",
  "sourceName": "contracts/HackSpace.sol",
  "abi": [
    {
      "inputs": [],
      "stateMutability": "nonpayable",
      "type": "constructor"
    },
    {
      "anonymous": false,
      "inputs": [
        {
          "indexed": true,
          "internalType": "address",
          "name": "owner",
          "type": "address"
        },
        {
          "indexed": true,
          "internalType": "address",
          "name": "approved",
          "type": "address"
        },
        {
          "indexed": true,
          "internalType": "uint256",
          "name": "tokenId",
          "type": "uint256"
        }
      ],
      "name": "Approval",
      "type": "event"
    },
    {
      "anonymous": false,
      "inputs": [
        {
          "indexed": true,
          "internalType": "address",
          "name": "owner",
          "type": "address"
        },
        {
          "indexed": true,
          "internalType": "address",
          "name": "operator",
          "type": "address"
        },
        {
          "indexed": false,
          "internalType": "bool",
          "name": "approved",
          "type": "bool"
        }
      ],
      "name": "ApprovalForAll",
      "type": "event"
    },
    {
      "anonymous": false,
      "inputs": [
        {
          "indexed": true,
          "internalType": "address",
          "name": "from",
          "type": "address"
        },
        {
          "indexed": true,
          "internalType": "address",
          "name": "to",
          "type": "address"
        },
        {
          "indexed": true,
          "internalType": "uint256",
          "name": "tokenId",
          "type": "uint256"
        }
      ],
      "name": "Transfer",
      "type": "event"
    },
    {
      "inputs": [
        {
          "internalType": "uint256",
          "name": "eventId",
          "type": "uint256"
        },
        {
          "internalType": "string",
          "name": "name",
          "type": "string"
        },
        {
          "internalType": "string",
          "name": "ipfs",
          "type": "string"
        }
      ],
      "name": "addAward",
      "outputs": [],
      "stateMutability": "payable",
      "type": "function"
    },
    {
      "inputs": [
        {
          "internalType": "string",
          "name": "name",
          "type": "string"
        }
      ],
      "name": "addEvent",
      "outputs": [],
      "stateMutability": "nonpayable",
      "type": "function"
    },
    {
      "inputs": [
        {
          "internalType": "uint256",
          "name": "eventId",
          "type": "uint256"
        },
        {
          "internalType": "uint256",
          "name": "teamId",
          "type": "uint256"
        },
        {
          "internalType": "address payable",
          "name": "member",
          "type": "address"
        }
      ],
      "name": "addMember",
      "outputs": [],
      "stateMutability": "nonpayable",
      "type": "function"
    },
    {
      "inputs": [
        {
          "internalType": "address",
          "name": "to",
          "type": "address"
        },
        {
          "internalType": "uint256",
          "name": "tokenId",
          "type": "uint256"
        }
      ],
      "name": "approve",
      "outputs": [],
      "stateMutability": "nonpayable",
      "type": "function"
    },
    {
      "inputs": [
        {
          "internalType": "address",
          "name": "owner",
          "type": "address"
        }
      ],
      "name": "balanceOf",
      "outputs": [
        {
          "internalType": "uint256",
          "name": "",
          "type": "uint256"
        }
      ],
      "stateMutability": "view",
      "type": "function"
    },
    {
      "inputs": [
        {
          "internalType": "uint256",
          "name": "eventId",
          "type": "uint256"
        },
        {
          "internalType": "uint256",
          "name": "awardId",
          "type": "uint256"
        },
        {
          "internalType": "uint256",
          "name": "teamId",
          "type": "uint256"
        }
      ],
      "name": "claimAward",
      "outputs": [],
      "stateMutability": "nonpayable",
      "type": "function"
    },
    {
      "inputs": [
        {
          "internalType": "uint256",
          "name": "eventId",
          "type": "uint256"
        },
        {
          "internalType": "uint256",
          "name": "awardId",
          "type": "uint256"
        },
        {
          "internalType": "uint256",
          "name": "teamId",
          "type": "uint256"
        }
      ],
      "name": "designateAward",
      "outputs": [],
      "stateMutability": "nonpayable",
      "type": "function"
    },
    {
      "inputs": [
        {
          "internalType": "uint256",
          "name": "",
          "type": "uint256"
        }
      ],
      "name": "events",
      "outputs": [
        {
          "internalType": "string",
          "name": "name",
          "type": "string"
        },
        {
          "internalType": "uint256",
          "name": "id",
          "type": "uint256"
        },
        {
          "internalType": "address",
          "name": "organizer",
          "type": "address"
        },
        {
          "internalType": "bool",
          "name": "allowSignup",
          "type": "bool"
        }
      ],
      "stateMutability": "view",
      "type": "function"
    },
    {
      "inputs": [
        {
          "internalType": "uint256",
          "name": "tokenId",
          "type": "uint256"
        }
      ],
      "name": "getApproved",
      "outputs": [
        {
          "internalType": "address",
          "name": "",
          "type": "address"
        }
      ],
      "stateMutability": "view",
      "type": "function"
    },
    {
      "inputs": [
        {
          "internalType": "address",
          "name": "owner",
          "type": "address"
        },
        {
          "internalType": "address",
          "name": "operator",
          "type": "address"
        }
      ],
      "name": "isApprovedForAll",
      "outputs": [
        {
          "internalType": "bool",
          "name": "",
          "type": "bool"
        }
      ],
      "stateMutability": "view",
      "type": "function"
    },
    {
      "inputs": [
        {
          "internalType": "uint256",
          "name": "eventId",
          "type": "uint256"
        },
        {
          "internalType": "string",
          "name": "name",
          "type": "string"
        }
      ],
      "name": "joinEvent",
      "outputs": [],
      "stateMutability": "nonpayable",
      "type": "function"
    },
    {
      "inputs": [],
      "name": "mintPrice",
      "outputs": [
        {
          "internalType": "uint256",
          "name": "",
          "type": "uint256"
        }
      ],
      "stateMutability": "view",
      "type": "function"
    },
    {
      "inputs": [],
      "name": "name",
      "outputs": [
        {
          "internalType": "string",
          "name": "",
          "type": "string"
        }
      ],
      "stateMutability": "view",
      "type": "function"
    },
    {
      "inputs": [],
      "name": "numEvents",
      "outputs": [
        {
          "internalType": "uint256",
          "name": "",
          "type": "uint256"
        }
      ],
      "stateMutability": "view",
      "type": "function"
    },
    {
      "inputs": [],
      "name": "owner",
      "outputs": [
        {
          "internalType": "address",
          "name": "",
          "type": "address"
        }
      ],
      "stateMutability": "view",
      "type": "function"
    },
    {
      "inputs": [
        {
          "internalType": "uint256",
          "name": "tokenId",
          "type": "uint256"
        }
      ],
      "name": "ownerOf",
      "outputs": [
        {
          "internalType": "address",
          "name": "",
          "type": "address"
        }
      ],
      "stateMutability": "view",
      "type": "function"
    },
    {
      "inputs": [
        {
          "internalType": "address",
          "name": "from",
          "type": "address"
        },
        {
          "internalType": "address",
          "name": "to",
          "type": "address"
        },
        {
          "internalType": "uint256",
          "name": "tokenId",
          "type": "uint256"
        }
      ],
      "name": "safeTransferFrom",
      "outputs": [],
      "stateMutability": "nonpayable",
      "type": "function"
    },
    {
      "inputs": [
        {
          "internalType": "address",
          "name": "from",
          "type": "address"
        },
        {
          "internalType": "address",
          "name": "to",
          "type": "address"
        },
        {
          "internalType": "uint256",
          "name": "tokenId",
          "type": "uint256"
        },
        {
          "internalType": "bytes",
          "name": "data",
          "type": "bytes"
        }
      ],
      "name": "safeTransferFrom",
      "outputs": [],
      "stateMutability": "nonpayable",
      "type": "function"
    },
    {
      "inputs": [
        {
          "internalType": "address",
          "name": "operator",
          "type": "address"
        },
        {
          "internalType": "bool",
          "name": "approved",
          "type": "bool"
        }
      ],
      "name": "setApprovalForAll",
      "outputs": [],
      "stateMutability": "nonpayable",
      "type": "function"
    },
    {
      "inputs": [
        {
          "internalType": "bytes4",
          "name": "interfaceId",
          "type": "bytes4"
        }
      ],
      "name": "supportsInterface",
      "outputs": [
        {
          "internalType": "bool",
          "name": "",
          "type": "bool"
        }
      ],
      "stateMutability": "view",
      "type": "function"
    },
    {
      "inputs": [],
      "name": "symbol",
      "outputs": [
        {
          "internalType": "string",
          "name": "",
          "type": "string"
        }
      ],
      "stateMutability": "view",
      "type": "function"
    },
    {
      "inputs": [
        {
          "internalType": "uint256",
          "name": "tokenId",
          "type": "uint256"
        }
      ],
      "name": "tokenURI",
      "outputs": [
        {
          "internalType": "string",
          "name": "",
          "type": "string"
        }
      ],
      "stateMutability": "view",
      "type": "function"
    },
    {
      "inputs": [],
      "name": "totalMints",
      "outputs": [
        {
          "internalType": "uint256",
          "name": "",
          "type": "uint256"
        }
      ],
      "stateMutability": "view",
      "type": "function"
    },
    {
      "inputs": [
        {
          "internalType": "address",
          "name": "from",
          "type": "address"
        },
        {
          "internalType": "address",
          "name": "to",
          "type": "address"
        },
        {
          "internalType": "uint256",
          "name": "tokenId",
          "type": "uint256"
        }
      ],
      "name": "transferFrom",
      "outputs": [],
      "stateMutability": "nonpayable",
      "type": "function"
    },
    {
      "inputs": [
        {
          "internalType": "uint256",
          "name": "eventId",
          "type": "uint256"
        },
        {
          "internalType": "uint256",
          "name": "awardId",
          "type": "uint256"
        }
      ],
      "name": "viewAward",
      "outputs": [
        {
          "components": [
            {
              "internalType": "string",
              "name": "name",
              "type": "string"
            },
            {
              "internalType": "uint256",
              "name": "id",
              "type": "uint256"
            },
            {
              "internalType": "uint256",
              "name": "prize",
              "type": "uint256"
            },
            {
              "internalType": "address",
              "name": "sponsor",
              "type": "address"
            },
            {
              "internalType": "uint256",
              "name": "sponsorDesignation",
              "type": "uint256"
            },
            {
              "internalType": "uint256",
              "name": "organizerDesignation",
              "type": "uint256"
            },
            {
              "internalType": "bool",
              "name": "hasSponsorDesignated",
              "type": "bool"
            },
            {
              "internalType": "bool",
              "name": "hasOrganizerDesignated",
              "type": "bool"
            },
            {
              "internalType": "bool",
              "name": "awarded",
              "type": "bool"
            },
            {
              "internalType": "string",
              "name": "win_nft",
              "type": "string"
            }
          ],
          "internalType": "struct HackSpace.Award",
          "name": "",
          "type": "tuple"
        }
      ],
      "stateMutability": "view",
      "type": "function"
    },
    {
      "inputs": [
        {
          "internalType": "uint256",
          "name": "eventId",
          "type": "uint256"
        }
      ],
      "name": "viewAwardsNum",
      "outputs": [
        {
          "internalType": "uint256",
          "name": "",
          "type": "uint256"
        }
      ],
      "stateMutability": "view",
      "type": "function"
    },
    {
      "inputs": [
        {
          "internalType": "uint256",
          "name": "eventId",
          "type": "uint256"
        },
        {
          "internalType": "uint256",
          "name": "teamId",
          "type": "uint256"
        },
        {
          "internalType": "uint256",
          "name": "member_index",
          "type": "uint256"
        }
      ],
      "name": "viewMember",
      "outputs": [
        {
          "internalType": "address payable",
          "name": "",
          "type": "address"
        }
      ],
      "stateMutability": "view",
      "type": "function"
    },
    {
      "inputs": [
        {
          "internalType": "uint256",
          "name": "eventId",
          "type": "uint256"
        },
        {
          "internalType": "uint256",
          "name": "teamId",
          "type": "uint256"
        }
      ],
      "name": "viewMembersNum",
      "outputs": [
        {
          "internalType": "uint256",
          "name": "",
          "type": "uint256"
        }
      ],
      "stateMutability": "view",
      "type": "function"
    },
    {
      "inputs": [
        {
          "internalType": "uint256",
          "name": "eventId",
          "type": "uint256"
        },
        {
          "internalType": "uint256",
          "name": "teamId",
          "type": "uint256"
        }
      ],
      "name": "viewTeam",
      "outputs": [
        {
          "components": [
            {
              "internalType": "string",
              "name": "name",
              "type": "string"
            },
            {
              "internalType": "uint256",
              "name": "id",
              "type": "uint256"
            },
            {
              "internalType": "address payable[]",
              "name": "members",
              "type": "address[]"
            }
          ],
          "internalType": "struct HackSpace.Team",
          "name": "",
          "type": "tuple"
        }
      ],
      "stateMutability": "view",
      "type": "function"
    },
    {
      "inputs": [
        {
          "internalType": "uint256",
          "name": "eventId",
          "type": "uint256"
        }
      ],
      "name": "viewTeamsNum",
      "outputs": [
        {
          "internalType": "uint256",
          "name": "",
          "type": "uint256"
        }
      ],
      "stateMutability": "view",
      "type": "function"
    }
  ],
  "bytecode": "0x608060405260006009553480156200001657600080fd5b506040518060400160405280600e81526020017f4861636b5370616365546f6b656e0000000000000000000000000000000000008152506040518060400160405280600381526020017f4853540000000000000000000000000000000000000000000000000000000000815250816000908162000094919062000372565b508060019081620000a6919062000372565b50505033600760006101000a81548173ffffffffffffffffffffffffffffffffffffffff021916908373ffffffffffffffffffffffffffffffffffffffff1602179055506000600b8190555062000459565b600081519050919050565b7f4e487b7100000000000000000000000000000000000000000000000000000000600052604160045260246000fd5b7f4e487b7100000000000000000000000000000000000000000000000000000000600052602260045260246000fd5b600060028204905060018216806200017a57607f821691505b60208210810362000190576200018f62000132565b5b50919050565b60008190508160005260206000209050919050565b60006020601f8301049050919050565b600082821b905092915050565b600060088302620001fa7fffffffffffffffffffffffffffffffffffffffffffffffffffffffffffffffff82620001bb565b620002068683620001bb565b95508019841693508086168417925050509392505050565b6000819050919050565b6000819050919050565b6000620002536200024d62000247846200021e565b62000228565b6200021e565b9050919050565b6000819050919050565b6200026f8362000232565b620002876200027e826200025a565b848454620001c8565b825550505050565b600090565b6200029e6200028f565b620002ab81848462000264565b505050565b5b81811015620002d357620002c760008262000294565b600181019050620002b1565b5050565b601f8211156200032257620002ec8162000196565b620002f784620001ab565b8101602085101562000307578190505b6200031f6200031685620001ab565b830182620002b0565b50505b505050565b600082821c905092915050565b6000620003476000198460080262000327565b1980831691505092915050565b600062000362838362000334565b9150826002028217905092915050565b6200037d82620000f8565b67ffffffffffffffff81111562000399576200039862000103565b5b620003a5825462000161565b620003b2828285620002d7565b600060209050601f831160018114620003ea5760008415620003d5578287015190505b620003e1858262000354565b86555062000451565b601f198416620003fa8662000196565b60005b828110156200042457848901518255600182019150602085019450602081019050620003fd565b8683101562000444578489015162000440601f89168262000334565b8355505b6001600288020188555050505b505050505050565b61545180620004696000396000f3fe6080604052600436106101cd5760003560e01c806381d35e22116100f7578063b5ee43c811610095578063df18a00e11610064578063df18a00e146106ee578063e985e9c514610717578063eda039ac14610754578063feaa33941461077d576101cd565b8063b5ee43c81461060e578063b88d4fde1461064b578063b8da820814610674578063c87b56dd146106b1576101cd565b806396de7cf3116100d157806396de7cf314610542578063a22cb4651461056b578063a30eff4514610594578063a3544c5b146105d1576101cd565b806381d35e22146104af5780638da5cb5b146104ec57806395d89b4114610517576101cd565b8063221975171161016f57806353b625981161013e57806353b62598146103ee5780636352211e1461040a5780636817c76c1461044757806370a0823114610472576101cd565b8063221975171461033457806323b872dd1461037157806334cf562b1461039a57806342842e0e146103c5576101cd565b8063095ea7b3116101ab578063095ea7b3146102775780630b791430146102a05780631e5832ed146102e05780631f21bfbf14610309576101cd565b806301ffc9a7146101d257806306fdde031461020f578063081812fc1461023a575b600080fd5b3480156101de57600080fd5b506101f960048036038101906101f49190613800565b6107a6565b6040516102069190613848565b60405180910390f35b34801561021b57600080fd5b50610224610888565b60405161023191906138f3565b60405180910390f35b34801561024657600080fd5b50610261600480360381019061025c919061394b565b61091a565b60405161026e91906139b9565b60405180910390f35b34801561028357600080fd5b5061029e60048036038101906102999190613a00565b610960565b005b3480156102ac57600080fd5b506102c760048036038101906102c2919061394b565b610a77565b6040516102d79493929190613a4f565b60405180910390f35b3480156102ec57600080fd5b5061030760048036038101906103029190613a9b565b610b5c565b005b34801561031557600080fd5b5061031e61107a565b60405161032b9190613aee565b60405180910390f35b34801561034057600080fd5b5061035b60048036038101906103569190613b09565b611080565b6040516103689190613ca1565b60405180910390f35b34801561037d57600080fd5b5061039860048036038101906103939190613cc3565b6112c5565b005b3480156103a657600080fd5b506103af611325565b6040516103bc9190613aee565b60405180910390f35b3480156103d157600080fd5b506103ec60048036038101906103e79190613cc3565b61132b565b005b61040860048036038101906104039190613e4b565b61134b565b005b34801561041657600080fd5b50610431600480360381019061042c919061394b565b61155e565b60405161043e91906139b9565b60405180910390f35b34801561045357600080fd5b5061045c6115e4565b6040516104699190613aee565b60405180910390f35b34801561047e57600080fd5b5061049960048036038101906104949190613ed6565b6115ea565b6040516104a69190613aee565b60405180910390f35b3480156104bb57600080fd5b506104d660048036038101906104d1919061394b565b6116a1565b6040516104e39190613aee565b60405180910390f35b3480156104f857600080fd5b506105016116c4565b60405161050e91906139b9565b60405180910390f35b34801561052357600080fd5b5061052c6116ea565b60405161053991906138f3565b60405180910390f35b34801561054e57600080fd5b5061056960048036038101906105649190613f41565b61177c565b005b34801561057757600080fd5b50610592600480360381019061058d9190613fc0565b611963565b005b3480156105a057600080fd5b506105bb60048036038101906105b69190613b09565b611979565b6040516105c89190613aee565b60405180910390f35b3480156105dd57600080fd5b506105f860048036038101906105f39190613b09565b6119c0565b6040516106059190614115565b60405180910390f35b34801561061a57600080fd5b506106356004803603810190610630919061394b565b611b3b565b6040516106429190613aee565b60405180910390f35b34801561065757600080fd5b50610672600480360381019061066d91906141d8565b611b5e565b005b34801561068057600080fd5b5061069b60048036038101906106969190613a9b565b611bc0565b6040516106a8919061426a565b60405180910390f35b3480156106bd57600080fd5b506106d860048036038101906106d3919061394b565b611c41565b6040516106e591906138f3565b60405180910390f35b3480156106fa57600080fd5b5061071560048036038101906107109190614285565b611c53565b005b34801561072357600080fd5b5061073e600480360381019061073991906142e1565b611dd1565b60405161074b9190613848565b60405180910390f35b34801561076057600080fd5b5061077b60048036038101906107769190613a9b565b611e65565b005b34801561078957600080fd5b506107a4600480360381019061079f9190614321565b612116565b005b60007f80ac58cd000000000000000000000000000000000000000000000000000000007bffffffffffffffffffffffffffffffffffffffffffffffffffffffff1916827bffffffffffffffffffffffffffffffffffffffffffffffffffffffff1916148061087157507f5b5e139f000000000000000000000000000000000000000000000000000000007bffffffffffffffffffffffffffffffffffffffffffffffffffffffff1916827bffffffffffffffffffffffffffffffffffffffffffffffffffffffff1916145b806108815750610880826122d6565b5b9050919050565b60606000805461089790614399565b80601f01602080910402602001604051908101604052809291908181526020018280546108c390614399565b80156109105780601f106108e557610100808354040283529160200191610910565b820191906000526020600020905b8154815290600101906020018083116108f357829003601f168201915b5050505050905090565b600061092582612340565b6004600083815260200190815260200160002060009054906101000a900473ffffffffffffffffffffffffffffffffffffffff169050919050565b600061096b8261155e565b90508073ffffffffffffffffffffffffffffffffffffffff168373ffffffffffffffffffffffffffffffffffffffff16036109db576040517f08c379a00000000000000000000000000000000000000000000000000000000081526004016109d29061443c565b60405180910390fd5b8073ffffffffffffffffffffffffffffffffffffffff166109fa61238b565b73ffffffffffffffffffffffffffffffffffffffff161480610a295750610a2881610a2361238b565b611dd1565b5b610a68576040517f08c379a0000000000000000000000000000000000000000000000000000000008152600401610a5f906144ce565b60405180910390fd5b610a728383612393565b505050565b600a602052806000526040600020600091509050806000018054610a9a90614399565b80601f0160208091040260200160405190810160405280929190818152602001828054610ac690614399565b8015610b135780601f10610ae857610100808354040283529160200191610b13565b820191906000526020600020905b815481529060010190602001808311610af657829003601f168201915b5050505050908060010154908060030160009054906101000a900473ffffffffffffffffffffffffffffffffffffffff16908060050160009054906101000a900460ff16905084565b600b548310610ba0576040517f08c379a0000000000000000000000000000000000000000000000000000000008152600401610b979061453a565b60405180910390fd5b6000600a6000858152602001908152602001600020905080600401805490508310610c00576040517f08c379a0000000000000000000000000000000000000000000000000000000008152600401610bf7906145a6565b60405180910390fd5b6000816004018481548110610c1857610c176145c6565b5b9060005260206000209060080201905081600201805490508310610c71576040517f08c379a0000000000000000000000000000000000000000000000000000000008152600401610c6890614641565b60405180910390fd5b6000826002018481548110610c8957610c886145c6565b5b9060005260206000209060030201905080600201600081548110610cb057610caf6145c6565b5b9060005260206000200160009054906101000a900473ffffffffffffffffffffffffffffffffffffffff1673ffffffffffffffffffffffffffffffffffffffff163373ffffffffffffffffffffffffffffffffffffffff1614610d48576040517f08c379a0000000000000000000000000000000000000000000000000000000008152600401610d3f906146ad565b60405180910390fd5b8160060160019054906101000a900460ff168015610d7457508160060160019054906101000a900460ff165b610db3576040517f08c379a0000000000000000000000000000000000000000000000000000000008152600401610daa90614719565b60405180910390fd5b83826005015414610df9576040517f08c379a0000000000000000000000000000000000000000000000000000000008152600401610df0906147ab565b60405180910390fd5b83826004015414610e3f576040517f08c379a0000000000000000000000000000000000000000000000000000000008152600401610e369061483d565b60405180910390fd5b8160060160029054906101000a900460ff1615610e91576040517f08c379a0000000000000000000000000000000000000000000000000000000008152600401610e88906148a9565b60405180910390fd5b60008160020180549050905060018360060160026101000a81548160ff02191690831515021790555060008360020154905060005b8281101561106f57836002018181548110610ee457610ee36145c6565b5b9060005260206000200160009054906101000a900473ffffffffffffffffffffffffffffffffffffffff1673ffffffffffffffffffffffffffffffffffffffff166108fc8484610f349190614927565b9081150290604051600060405180830381858888f19350505050158015610f5f573d6000803e3d6000fd5b50610fac846002018281548110610f7957610f786145c6565b5b9060005260206000200160009054906101000a900473ffffffffffffffffffffffffffffffffffffffff1660085461244c565b611044600854866007018054610fc190614399565b80601f0160208091040260200160405190810160405280929190818152602001828054610fed90614399565b801561103a5780601f1061100f5761010080835404028352916020019161103a565b820191906000526020600020905b81548152906001019060200180831161101d57829003601f168201915b505050505061246a565b6008600081548092919061105790614958565b9190505550808061106790614958565b915050610ec6565b505050505050505050565b60085481565b61108861328b565b600a600084815260200190815260200160002060040182815481106110b0576110af6145c6565b5b9060005260206000209060080201604051806101400160405290816000820180546110da90614399565b80601f016020809104026020016040519081016040528092919081815260200182805461110690614399565b80156111535780601f1061112857610100808354040283529160200191611153565b820191906000526020600020905b81548152906001019060200180831161113657829003601f168201915b5050505050815260200160018201548152602001600282015481526020016003820160009054906101000a900473ffffffffffffffffffffffffffffffffffffffff1673ffffffffffffffffffffffffffffffffffffffff1673ffffffffffffffffffffffffffffffffffffffff16815260200160048201548152602001600582015481526020016006820160009054906101000a900460ff161515151581526020016006820160019054906101000a900460ff161515151581526020016006820160029054906101000a900460ff1615151515815260200160078201805461123b90614399565b80601f016020809104026020016040519081016040528092919081815260200182805461126790614399565b80156112b45780601f10611289576101008083540402835291602001916112b4565b820191906000526020600020905b81548152906001019060200180831161129757829003601f168201915b505050505081525050905092915050565b6112d66112d061238b565b826124d7565b611315576040517f08c379a000000000000000000000000000000000000000000000000000000000815260040161130c90614a12565b60405180910390fd5b61132083838361256c565b505050565b600b5481565b61134683838360405180602001604052806000815250611b5e565b505050565b600b54831061138f576040517f08c379a00000000000000000000000000000000000000000000000000000000081526004016113869061453a565b60405180910390fd5b6000600a600085815260200190815260200160002090506000816004018054905090506000339050600034905060006040518061014001604052808881526020018581526020018381526020018473ffffffffffffffffffffffffffffffffffffffff168152602001600081526020016000815260200160001515815260200160001515815260200160001515815260200187815250905084600401819080600181540180825580915050600190039060005260206000209060080201600090919091909150600082015181600001908161146a9190614bde565b50602082015181600101556040820151816002015560608201518160030160006101000a81548173ffffffffffffffffffffffffffffffffffffffff021916908373ffffffffffffffffffffffffffffffffffffffff1602179055506080820151816004015560a0820151816005015560c08201518160060160006101000a81548160ff02191690831515021790555060e08201518160060160016101000a81548160ff0219169083151502179055506101008201518160060160026101000a81548160ff0219169083151502179055506101208201518160070190816115519190614bde565b5050505050505050505050565b60008061156a83612865565b9050600073ffffffffffffffffffffffffffffffffffffffff168173ffffffffffffffffffffffffffffffffffffffff16036115db576040517f08c379a00000000000000000000000000000000000000000000000000000000081526004016115d290614cfc565b60405180910390fd5b80915050919050565b60095481565b60008073ffffffffffffffffffffffffffffffffffffffff168273ffffffffffffffffffffffffffffffffffffffff160361165a576040517f08c379a000000000000000000000000000000000000000000000000000000000815260040161165190614d8e565b60405180910390fd5b600360008373ffffffffffffffffffffffffffffffffffffffff1673ffffffffffffffffffffffffffffffffffffffff168152602001908152602001600020549050919050565b6000600a6000838152602001908152602001600020600401805490509050919050565b600760009054906101000a900473ffffffffffffffffffffffffffffffffffffffff1681565b6060600180546116f990614399565b80601f016020809104026020016040519081016040528092919081815260200182805461172590614399565b80156117725780601f1061174757610100808354040283529160200191611772565b820191906000526020600020905b81548152906001019060200180831161175557829003601f168201915b5050505050905090565b600b5483106117c0576040517f08c379a00000000000000000000000000000000000000000000000000000000081526004016117b79061453a565b60405180910390fd5b6000600a6000858152602001908152602001600020905080600201805490508310611820576040517f08c379a000000000000000000000000000000000000000000000000000000000815260040161181790614641565b60405180910390fd5b6000816002018481548110611838576118376145c6565b5b906000526020600020906003020190508060020160008154811061185f5761185e6145c6565b5b9060005260206000200160009054906101000a900473ffffffffffffffffffffffffffffffffffffffff1673ffffffffffffffffffffffffffffffffffffffff163373ffffffffffffffffffffffffffffffffffffffff16146118f7576040517f08c379a00000000000000000000000000000000000000000000000000000000081526004016118ee906146ad565b60405180910390fd5b80600201839080600181540180825580915050600190039060005260206000200160009091909190916101000a81548173ffffffffffffffffffffffffffffffffffffffff021916908373ffffffffffffffffffffffffffffffffffffffff1602179055505050505050565b61197561196e61238b565b83836128a2565b5050565b6000600a600084815260200190815260200160002060020182815481106119a3576119a26145c6565b5b906000526020600020906003020160020180549050905092915050565b6119c86132fa565b600a600084815260200190815260200160002060020182815481106119f0576119ef6145c6565b5b9060005260206000209060030201604051806060016040529081600082018054611a1990614399565b80601f0160208091040260200160405190810160405280929190818152602001828054611a4590614399565b8015611a925780601f10611a6757610100808354040283529160200191611a92565b820191906000526020600020905b815481529060010190602001808311611a7557829003601f168201915b505050505081526020016001820154815260200160028201805480602002602001604051908101604052809291908181526020018280548015611b2a57602002820191906000526020600020905b8160009054906101000a900473ffffffffffffffffffffffffffffffffffffffff1673ffffffffffffffffffffffffffffffffffffffff1681526020019060010190808311611ae0575b505050505081525050905092915050565b6000600a6000838152602001908152602001600020600201805490509050919050565b611b6f611b6961238b565b836124d7565b611bae576040517f08c379a0000000000000000000000000000000000000000000000000000000008152600401611ba590614a12565b60405180910390fd5b611bba84848484612a0e565b50505050565b6000600a60008581526020019081526020016000206002018381548110611bea57611be96145c6565b5b90600052602060002090600302016002018281548110611c0d57611c0c6145c6565b5b9060005260206000200160009054906101000a900473ffffffffffffffffffffffffffffffffffffffff1690509392505050565b6060611c4c82612a6a565b9050919050565b600b548210611c97576040517f08c379a0000000000000000000000000000000000000000000000000000000008152600401611c8e9061453a565b60405180910390fd5b6000600a60008481526020019081526020016000209050600081600201805490509050611cc26132fa565b83816000018190525084816020018181525050826002018190806001815401808255809150506001900390600052602060002090600302016000909190919091506000820151816000019081611d189190614bde565b50602082015181600101556040820151816002019080519060200190611d3f92919061331b565b505050826002018281548110611d5857611d576145c6565b5b9060005260206000209060030201600201339080600181540180825580915050600190039060005260206000200160009091909190916101000a81548173ffffffffffffffffffffffffffffffffffffffff021916908373ffffffffffffffffffffffffffffffffffffffff1602179055505050505050565b6000600560008473ffffffffffffffffffffffffffffffffffffffff1673ffffffffffffffffffffffffffffffffffffffff16815260200190815260200160002060008373ffffffffffffffffffffffffffffffffffffffff1673ffffffffffffffffffffffffffffffffffffffff16815260200190815260200160002060009054906101000a900460ff16905092915050565b600b548310611ea9576040517f08c379a0000000000000000000000000000000000000000000000000000000008152600401611ea09061453a565b60405180910390fd5b6000600a6000858152602001908152602001600020905080600401805490508310611f09576040517f08c379a0000000000000000000000000000000000000000000000000000000008152600401611f00906145a6565b60405180910390fd5b6000816004018481548110611f2157611f206145c6565b5b9060005260206000209060080201905081600201805490508310611f7a576040517f08c379a0000000000000000000000000000000000000000000000000000000008152600401611f7190614641565b60405180910390fd5b8160030160009054906101000a900473ffffffffffffffffffffffffffffffffffffffff1673ffffffffffffffffffffffffffffffffffffffff163373ffffffffffffffffffffffffffffffffffffffff16148061202757508060030160009054906101000a900473ffffffffffffffffffffffffffffffffffffffff1673ffffffffffffffffffffffffffffffffffffffff163373ffffffffffffffffffffffffffffffffffffffff16145b612066576040517f08c379a000000000000000000000000000000000000000000000000000000000815260040161205d90614dfa565b60405180910390fd5b8160030160009054906101000a900473ffffffffffffffffffffffffffffffffffffffff1673ffffffffffffffffffffffffffffffffffffffff163373ffffffffffffffffffffffffffffffffffffffff16036120e85782816005018190555060018160060160016101000a81548160ff02191690831515021790555061210f565b82816004018190555060018160060160006101000a81548160ff0219169083151502179055505b5050505050565b60006001600b546121279190614e1a565b905060003390506000600a60008481526020019081526020016000209050838160000190816121569190614bde565b50828160010181905550818160030160006101000a81548173ffffffffffffffffffffffffffffffffffffffff021916908373ffffffffffffffffffffffffffffffffffffffff16021790555060008160050160006101000a81548160ff02191690831515021790555080600a6000858152602001908152602001600020600082018160000190816121e89190614e64565b506001820154816001015560028201816002019080546122099291906133a5565b506003820160009054906101000a900473ffffffffffffffffffffffffffffffffffffffff168160030160006101000a81548173ffffffffffffffffffffffffffffffffffffffff021916908373ffffffffffffffffffffffffffffffffffffffff1602179055506004820181600401908054612287929190613433565b506005820160009054906101000a900460ff168160050160006101000a81548160ff021916908315150217905550905050600b60008154809291906122cb90614958565b919050555050505050565b60007f01ffc9a7000000000000000000000000000000000000000000000000000000007bffffffffffffffffffffffffffffffffffffffffffffffffffffffff1916827bffffffffffffffffffffffffffffffffffffffffffffffffffffffff1916149050919050565b61234981612b7c565b612388576040517f08c379a000000000000000000000000000000000000000000000000000000000815260040161237f90614cfc565b60405180910390fd5b50565b600033905090565b816004600083815260200190815260200160002060006101000a81548173ffffffffffffffffffffffffffffffffffffffff021916908373ffffffffffffffffffffffffffffffffffffffff160217905550808273ffffffffffffffffffffffffffffffffffffffff166124068361155e565b73ffffffffffffffffffffffffffffffffffffffff167f8c5be1e5ebec7d5bd14f71427d1e84f3dd0314c0f7b2291e5b200ac8c7c3b92560405160405180910390a45050565b612466828260405180602001604052806000815250612bbd565b5050565b61247382612b7c565b6124b2576040517f08c379a00000000000000000000000000000000000000000000000000000000081526004016124a990614fbe565b60405180910390fd5b806006600084815260200190815260200160002090816124d29190614bde565b505050565b6000806124e38361155e565b90508073ffffffffffffffffffffffffffffffffffffffff168473ffffffffffffffffffffffffffffffffffffffff16148061252557506125248185611dd1565b5b8061256357508373ffffffffffffffffffffffffffffffffffffffff1661254b8461091a565b73ffffffffffffffffffffffffffffffffffffffff16145b91505092915050565b8273ffffffffffffffffffffffffffffffffffffffff1661258c8261155e565b73ffffffffffffffffffffffffffffffffffffffff16146125e2576040517f08c379a00000000000000000000000000000000000000000000000000000000081526004016125d990615050565b60405180910390fd5b600073ffffffffffffffffffffffffffffffffffffffff168273ffffffffffffffffffffffffffffffffffffffff1603612651576040517f08c379a0000000000000000000000000000000000000000000000000000000008152600401612648906150e2565b60405180910390fd5b61265e8383836001612c18565b8273ffffffffffffffffffffffffffffffffffffffff1661267e8261155e565b73ffffffffffffffffffffffffffffffffffffffff16146126d4576040517f08c379a00000000000000000000000000000000000000000000000000000000081526004016126cb90615050565b60405180910390fd5b6004600082815260200190815260200160002060006101000a81549073ffffffffffffffffffffffffffffffffffffffff02191690556001600360008573ffffffffffffffffffffffffffffffffffffffff1673ffffffffffffffffffffffffffffffffffffffff168152602001908152602001600020600082825403925050819055506001600360008473ffffffffffffffffffffffffffffffffffffffff1673ffffffffffffffffffffffffffffffffffffffff16815260200190815260200160002060008282540192505081905550816002600083815260200190815260200160002060006101000a81548173ffffffffffffffffffffffffffffffffffffffff021916908373ffffffffffffffffffffffffffffffffffffffff160217905550808273ffffffffffffffffffffffffffffffffffffffff168473ffffffffffffffffffffffffffffffffffffffff167fddf252ad1be2c89b69c2b068fc378daa952ba7f163c4a11628f55a4df523b3ef60405160405180910390a46128608383836001612c1e565b505050565b60006002600083815260200190815260200160002060009054906101000a900473ffffffffffffffffffffffffffffffffffffffff169050919050565b8173ffffffffffffffffffffffffffffffffffffffff168373ffffffffffffffffffffffffffffffffffffffff1603612910576040517f08c379a00000000000000000000000000000000000000000000000000000000081526004016129079061514e565b60405180910390fd5b80600560008573ffffffffffffffffffffffffffffffffffffffff1673ffffffffffffffffffffffffffffffffffffffff16815260200190815260200160002060008473ffffffffffffffffffffffffffffffffffffffff1673ffffffffffffffffffffffffffffffffffffffff16815260200190815260200160002060006101000a81548160ff0219169083151502179055508173ffffffffffffffffffffffffffffffffffffffff168373ffffffffffffffffffffffffffffffffffffffff167f17307eab39ab6107e8899845ad3d59bd9653f200f220920489ca2b5937696c3183604051612a019190613848565b60405180910390a3505050565b612a1984848461256c565b612a2584848484612c24565b612a64576040517f08c379a0000000000000000000000000000000000000000000000000000000008152600401612a5b906151e0565b60405180910390fd5b50505050565b6060612a7582612340565b6000600660008481526020019081526020016000208054612a9590614399565b80601f0160208091040260200160405190810160405280929190818152602001828054612ac190614399565b8015612b0e5780601f10612ae357610100808354040283529160200191612b0e565b820191906000526020600020905b815481529060010190602001808311612af157829003601f168201915b505050505090506000612b1f612dab565b90506000815103612b34578192505050612b77565b600082511115612b69578082604051602001612b5192919061523c565b60405160208183030381529060405292505050612b77565b612b7284612dc2565b925050505b919050565b60008073ffffffffffffffffffffffffffffffffffffffff16612b9e83612865565b73ffffffffffffffffffffffffffffffffffffffff1614159050919050565b612bc78383612e2a565b612bd46000848484612c24565b612c13576040517f08c379a0000000000000000000000000000000000000000000000000000000008152600401612c0a906151e0565b60405180910390fd5b505050565b50505050565b50505050565b6000612c458473ffffffffffffffffffffffffffffffffffffffff16613047565b15612d9e578373ffffffffffffffffffffffffffffffffffffffff1663150b7a02612c6e61238b565b8786866040518563ffffffff1660e01b8152600401612c9094939291906152b5565b6020604051808303816000875af1925050508015612ccc57506040513d601f19601f82011682018060405250810190612cc99190615316565b60015b612d4e573d8060008114612cfc576040519150601f19603f3d011682016040523d82523d6000602084013e612d01565b606091505b506000815103612d46576040517f08c379a0000000000000000000000000000000000000000000000000000000008152600401612d3d906151e0565b60405180910390fd5b805181602001fd5b63150b7a0260e01b7bffffffffffffffffffffffffffffffffffffffffffffffffffffffff1916817bffffffffffffffffffffffffffffffffffffffffffffffffffffffff191614915050612da3565b600190505b949350505050565b606060405180602001604052806000815250905090565b6060612dcd82612340565b6000612dd7612dab565b90506000815111612df75760405180602001604052806000815250612e22565b80612e018461306a565b604051602001612e1292919061523c565b6040516020818303038152906040525b915050919050565b600073ffffffffffffffffffffffffffffffffffffffff168273ffffffffffffffffffffffffffffffffffffffff1603612e99576040517f08c379a0000000000000000000000000000000000000000000000000000000008152600401612e909061538f565b60405180910390fd5b612ea281612b7c565b15612ee2576040517f08c379a0000000000000000000000000000000000000000000000000000000008152600401612ed9906153fb565b60405180910390fd5b612ef0600083836001612c18565b612ef981612b7c565b15612f39576040517f08c379a0000000000000000000000000000000000000000000000000000000008152600401612f30906153fb565b60405180910390fd5b6001600360008473ffffffffffffffffffffffffffffffffffffffff1673ffffffffffffffffffffffffffffffffffffffff16815260200190815260200160002060008282540192505081905550816002600083815260200190815260200160002060006101000a81548173ffffffffffffffffffffffffffffffffffffffff021916908373ffffffffffffffffffffffffffffffffffffffff160217905550808273ffffffffffffffffffffffffffffffffffffffff16600073ffffffffffffffffffffffffffffffffffffffff167fddf252ad1be2c89b69c2b068fc378daa952ba7f163c4a11628f55a4df523b3ef60405160405180910390a4613043600083836001612c1e565b5050565b6000808273ffffffffffffffffffffffffffffffffffffffff163b119050919050565b60606000600161307984613138565b01905060008167ffffffffffffffff81111561309857613097613d20565b5b6040519080825280601f01601f1916602001820160405280156130ca5781602001600182028036833780820191505090505b509050600082602001820190505b60011561312d578080600190039150507f3031323334353637383961626364656600000000000000000000000000000000600a86061a8153600a8581613121576131206148c9565b5b049450600085036130d8575b819350505050919050565b600080600090507a184f03e93ff9f4daa797ed6e38ed64bf6a1f0100000000000000008310613196577a184f03e93ff9f4daa797ed6e38ed64bf6a1f010000000000000000838161318c5761318b6148c9565b5b0492506040810190505b6d04ee2d6d415b85acef810000000083106131d3576d04ee2d6d415b85acef810000000083816131c9576131c86148c9565b5b0492506020810190505b662386f26fc10000831061320257662386f26fc1000083816131f8576131f76148c9565b5b0492506010810190505b6305f5e100831061322b576305f5e1008381613221576132206148c9565b5b0492506008810190505b6127108310613250576127108381613246576132456148c9565b5b0492506004810190505b606483106132735760648381613269576132686148c9565b5b0492506002810190505b600a8310613282576001810190505b80915050919050565b604051806101400160405280606081526020016000815260200160008152602001600073ffffffffffffffffffffffffffffffffffffffff1681526020016000815260200160008152602001600015158152602001600015158152602001600015158152602001606081525090565b60405180606001604052806060815260200160008152602001606081525090565b828054828255906000526020600020908101928215613394579160200282015b828111156133935782518260006101000a81548173ffffffffffffffffffffffffffffffffffffffff021916908373ffffffffffffffffffffffffffffffffffffffff1602179055509160200191906001019061333b565b5b5090506133a191906135cb565b5090565b8280548282559060005260206000209060030281019282156134225760005260206000209160030282015b82811115613421578282600082018160000190816133ee9190614e64565b5060018201548160010155600282018160020190805461340f9291906135e8565b505050916003019190600301906133d0565b5b50905061342f919061363a565b5090565b8280548282559060005260206000209060080281019282156135ba5760005260206000209160080282015b828111156135b95782826000820181600001908161347c9190614e64565b5060018201548160010155600282015481600201556003820160009054906101000a900473ffffffffffffffffffffffffffffffffffffffff168160030160006101000a81548173ffffffffffffffffffffffffffffffffffffffff021916908373ffffffffffffffffffffffffffffffffffffffff16021790555060048201548160040155600582015481600501556006820160009054906101000a900460ff168160060160006101000a81548160ff0219169083151502179055506006820160019054906101000a900460ff168160060160016101000a81548160ff0219169083151502179055506006820160029054906101000a900460ff168160060160026101000a81548160ff021916908315150217905550600782018160070190816135a79190614e64565b5050509160080191906008019061345e565b5b5090506135c79190613679565b5090565b5b808211156135e45760008160009055506001016135cc565b5090565b8280548282559060005260206000209081019282156136295760005260206000209182015b8281111561362857825482559160010191906001019061360d565b5b50905061363691906135cb565b5090565b5b8082111561367557600080820160006136549190613733565b600182016000905560028201600061366c9190613773565b5060030161363b565b5090565b5b8082111561372f57600080820160006136939190613733565b600182016000905560028201600090556003820160006101000a81549073ffffffffffffffffffffffffffffffffffffffff0219169055600482016000905560058201600090556006820160006101000a81549060ff02191690556006820160016101000a81549060ff02191690556006820160026101000a81549060ff02191690556007820160006137269190613733565b5060080161367a565b5090565b50805461373f90614399565b6000825580601f106137515750613770565b601f01602090049060005260206000209081019061376f91906135cb565b5b50565b508054600082559060005260206000209081019061379191906135cb565b50565b6000604051905090565b600080fd5b600080fd5b60007fffffffff0000000000000000000000000000000000000000000000000000000082169050919050565b6137dd816137a8565b81146137e857600080fd5b50565b6000813590506137fa816137d4565b92915050565b6000602082840312156138165761381561379e565b5b6000613824848285016137eb565b91505092915050565b60008115159050919050565b6138428161382d565b82525050565b600060208201905061385d6000830184613839565b92915050565b600081519050919050565b600082825260208201905092915050565b60005b8381101561389d578082015181840152602081019050613882565b60008484015250505050565b6000601f19601f8301169050919050565b60006138c582613863565b6138cf818561386e565b93506138df81856020860161387f565b6138e8816138a9565b840191505092915050565b6000602082019050818103600083015261390d81846138ba565b905092915050565b6000819050919050565b61392881613915565b811461393357600080fd5b50565b6000813590506139458161391f565b92915050565b6000602082840312156139615761396061379e565b5b600061396f84828501613936565b91505092915050565b600073ffffffffffffffffffffffffffffffffffffffff82169050919050565b60006139a382613978565b9050919050565b6139b381613998565b82525050565b60006020820190506139ce60008301846139aa565b92915050565b6139dd81613998565b81146139e857600080fd5b50565b6000813590506139fa816139d4565b92915050565b60008060408385031215613a1757613a1661379e565b5b6000613a25858286016139eb565b9250506020613a3685828601613936565b9150509250929050565b613a4981613915565b82525050565b60006080820190508181036000830152613a6981876138ba565b9050613a786020830186613a40565b613a8560408301856139aa565b613a926060830184613839565b95945050505050565b600080600060608486031215613ab457613ab361379e565b5b6000613ac286828701613936565b9350506020613ad386828701613936565b9250506040613ae486828701613936565b9150509250925092565b6000602082019050613b036000830184613a40565b92915050565b60008060408385031215613b2057613b1f61379e565b5b6000613b2e85828601613936565b9250506020613b3f85828601613936565b9150509250929050565b600082825260208201905092915050565b6000613b6582613863565b613b6f8185613b49565b9350613b7f81856020860161387f565b613b88816138a9565b840191505092915050565b613b9c81613915565b82525050565b613bab81613998565b82525050565b613bba8161382d565b82525050565b6000610140830160008301518482036000860152613bde8282613b5a565b9150506020830151613bf36020860182613b93565b506040830151613c066040860182613b93565b506060830151613c196060860182613ba2565b506080830151613c2c6080860182613b93565b5060a0830151613c3f60a0860182613b93565b5060c0830151613c5260c0860182613bb1565b5060e0830151613c6560e0860182613bb1565b50610100830151613c7a610100860182613bb1565b50610120830151848203610120860152613c948282613b5a565b9150508091505092915050565b60006020820190508181036000830152613cbb8184613bc0565b905092915050565b600080600060608486031215613cdc57613cdb61379e565b5b6000613cea868287016139eb565b9350506020613cfb868287016139eb565b9250506040613d0c86828701613936565b9150509250925092565b600080fd5b600080fd5b7f4e487b7100000000000000000000000000000000000000000000000000000000600052604160045260246000fd5b613d58826138a9565b810181811067ffffffffffffffff82111715613d7757613d76613d20565b5b80604052505050565b6000613d8a613794565b9050613d968282613d4f565b919050565b600067ffffffffffffffff821115613db657613db5613d20565b5b613dbf826138a9565b9050602081019050919050565b82818337600083830152505050565b6000613dee613de984613d9b565b613d80565b905082815260208101848484011115613e0a57613e09613d1b565b5b613e15848285613dcc565b509392505050565b600082601f830112613e3257613e31613d16565b5b8135613e42848260208601613ddb565b91505092915050565b600080600060608486031215613e6457613e6361379e565b5b6000613e7286828701613936565b935050602084013567ffffffffffffffff811115613e9357613e926137a3565b5b613e9f86828701613e1d565b925050604084013567ffffffffffffffff811115613ec057613ebf6137a3565b5b613ecc86828701613e1d565b9150509250925092565b600060208284031215613eec57613eeb61379e565b5b6000613efa848285016139eb565b91505092915050565b6000613f0e82613978565b9050919050565b613f1e81613f03565b8114613f2957600080fd5b50565b600081359050613f3b81613f15565b92915050565b600080600060608486031215613f5a57613f5961379e565b5b6000613f6886828701613936565b9350506020613f7986828701613936565b9250506040613f8a86828701613f2c565b9150509250925092565b613f9d8161382d565b8114613fa857600080fd5b50565b600081359050613fba81613f94565b92915050565b60008060408385031215613fd757613fd661379e565b5b6000613fe5858286016139eb565b9250506020613ff685828601613fab565b9150509250929050565b600081519050919050565b600082825260208201905092915050565b6000819050602082019050919050565b61403581613f03565b82525050565b6000614047838361402c565b60208301905092915050565b6000602082019050919050565b600061406b82614000565b614075818561400b565b93506140808361401c565b8060005b838110156140b1578151614098888261403b565b97506140a383614053565b925050600181019050614084565b5085935050505092915050565b600060608301600083015184820360008601526140db8282613b5a565b91505060208301516140f06020860182613b93565b50604083015184820360408601526141088282614060565b9150508091505092915050565b6000602082019050818103600083015261412f81846140be565b905092915050565b600067ffffffffffffffff82111561415257614151613d20565b5b61415b826138a9565b9050602081019050919050565b600061417b61417684614137565b613d80565b90508281526020810184848401111561419757614196613d1b565b5b6141a2848285613dcc565b509392505050565b600082601f8301126141bf576141be613d16565b5b81356141cf848260208601614168565b91505092915050565b600080600080608085870312156141f2576141f161379e565b5b6000614200878288016139eb565b9450506020614211878288016139eb565b935050604061422287828801613936565b925050606085013567ffffffffffffffff811115614243576142426137a3565b5b61424f878288016141aa565b91505092959194509250565b61426481613f03565b82525050565b600060208201905061427f600083018461425b565b92915050565b6000806040838503121561429c5761429b61379e565b5b60006142aa85828601613936565b925050602083013567ffffffffffffffff8111156142cb576142ca6137a3565b5b6142d785828601613e1d565b9150509250929050565b600080604083850312156142f8576142f761379e565b5b6000614306858286016139eb565b9250506020614317858286016139eb565b9150509250929050565b6000602082840312156143375761433661379e565b5b600082013567ffffffffffffffff811115614355576143546137a3565b5b61436184828501613e1d565b91505092915050565b7f4e487b7100000000000000000000000000000000000000000000000000000000600052602260045260246000fd5b600060028204905060018216806143b157607f821691505b6020821081036143c4576143c361436a565b5b50919050565b7f4552433732313a20617070726f76616c20746f2063757272656e74206f776e6560008201527f7200000000000000000000000000000000000000000000000000000000000000602082015250565b600061442660218361386e565b9150614431826143ca565b604082019050919050565b6000602082019050818103600083015261445581614419565b9050919050565b7f4552433732313a20617070726f76652063616c6c6572206973206e6f7420746f60008201527f6b656e206f776e6572206f7220617070726f76656420666f7220616c6c000000602082015250565b60006144b8603d8361386e565b91506144c38261445c565b604082019050919050565b600060208201905081810360008301526144e7816144ab565b9050919050565b7f6e6f7420612076616c6964206576656e74496400000000000000000000000000600082015250565b600061452460138361386e565b915061452f826144ee565b602082019050919050565b6000602082019050818103600083015261455381614517565b9050919050565b7f6e6f7420612076616c6964206177617264496400000000000000000000000000600082015250565b600061459060138361386e565b915061459b8261455a565b602082019050919050565b600060208201905081810360008301526145bf81614583565b9050919050565b7f4e487b7100000000000000000000000000000000000000000000000000000000600052603260045260246000fd5b7f6e6f7420612076616c6964207465616d49640000000000000000000000000000600082015250565b600061462b60128361386e565b9150614636826145f5565b602082019050919050565b6000602082019050818103600083015261465a8161461e565b9050919050565b7f796f7520617265206e6f74207465616d206c6561646572000000000000000000600082015250565b600061469760178361386e565b91506146a282614661565b602082019050919050565b600060208201905081810360008301526146c68161468a565b9050919050565b7f6177617264206e6f742064657369676e61746564207965740000000000000000600082015250565b600061470360188361386e565b915061470e826146cd565b602082019050919050565b60006020820190508181036000830152614732816146f6565b9050919050565b7f796f752077657265206e6f742063686f73656e20627920746865206f7267616e60008201527f697a657200000000000000000000000000000000000000000000000000000000602082015250565b600061479560248361386e565b91506147a082614739565b604082019050919050565b600060208201905081810360008301526147c481614788565b9050919050565b7f796f752077657265206e6f742063686f73656e206279207468652073706f6e7360008201527f6f72000000000000000000000000000000000000000000000000000000000000602082015250565b600061482760228361386e565b9150614832826147cb565b604082019050919050565b600060208201905081810360008301526148568161481a565b9050919050565b7f61776172642077617320616c72656164792072656c6561736564000000000000600082015250565b6000614893601a8361386e565b915061489e8261485d565b602082019050919050565b600060208201905081810360008301526148c281614886565b9050919050565b7f4e487b7100000000000000000000000000000000000000000000000000000000600052601260045260246000fd5b7f4e487b7100000000000000000000000000000000000000000000000000000000600052601160045260246000fd5b600061493282613915565b915061493d83613915565b92508261494d5761494c6148c9565b5b828204905092915050565b600061496382613915565b91507fffffffffffffffffffffffffffffffffffffffffffffffffffffffffffffffff8203614995576149946148f8565b5b600182019050919050565b7f4552433732313a2063616c6c6572206973206e6f7420746f6b656e206f776e6560008201527f72206f7220617070726f76656400000000000000000000000000000000000000602082015250565b60006149fc602d8361386e565b9150614a07826149a0565b604082019050919050565b60006020820190508181036000830152614a2b816149ef565b9050919050565b60008190508160005260206000209050919050565b60006020601f8301049050919050565b600082821b905092915050565b600060088302614a947fffffffffffffffffffffffffffffffffffffffffffffffffffffffffffffffff82614a57565b614a9e8683614a57565b95508019841693508086168417925050509392505050565b6000819050919050565b6000614adb614ad6614ad184613915565b614ab6565b613915565b9050919050565b6000819050919050565b614af583614ac0565b614b09614b0182614ae2565b848454614a64565b825550505050565b600090565b614b1e614b11565b614b29818484614aec565b505050565b5b81811015614b4d57614b42600082614b16565b600181019050614b2f565b5050565b601f821115614b9257614b6381614a32565b614b6c84614a47565b81016020851015614b7b578190505b614b8f614b8785614a47565b830182614b2e565b50505b505050565b600082821c905092915050565b6000614bb560001984600802614b97565b1980831691505092915050565b6000614bce8383614ba4565b9150826002028217905092915050565b614be782613863565b67ffffffffffffffff811115614c0057614bff613d20565b5b614c0a8254614399565b614c15828285614b51565b600060209050601f831160018114614c485760008415614c36578287015190505b614c408582614bc2565b865550614ca8565b601f198416614c5686614a32565b60005b82811015614c7e57848901518255600182019150602085019450602081019050614c59565b86831015614c9b5784890151614c97601f891682614ba4565b8355505b6001600288020188555050505b505050505050565b7f4552433732313a20696e76616c696420746f6b656e2049440000000000000000600082015250565b6000614ce660188361386e565b9150614cf182614cb0565b602082019050919050565b60006020820190508181036000830152614d1581614cd9565b9050919050565b7f4552433732313a2061646472657373207a65726f206973206e6f74206120766160008201527f6c6964206f776e65720000000000000000000000000000000000000000000000602082015250565b6000614d7860298361386e565b9150614d8382614d1c565b604082019050919050565b60006020820190508181036000830152614da781614d6b565b9050919050565b7f6e6f74206f7267616e697a6572206f722073706f6e736f720000000000000000600082015250565b6000614de460188361386e565b9150614def82614dae565b602082019050919050565b60006020820190508181036000830152614e1381614dd7565b9050919050565b6000614e2582613915565b9150614e3083613915565b9250828201905080821115614e4857614e476148f8565b5b92915050565b600081549050614e5d81614399565b9050919050565b818103614e72575050614f4a565b614e7b82614e4e565b67ffffffffffffffff811115614e9457614e93613d20565b5b614e9e8254614399565b614ea9828285614b51565b6000601f831160018114614ed85760008415614ec6578287015490505b614ed08582614bc2565b865550614f43565b601f198416614ee687614a32565b9650614ef186614a32565b60005b82811015614f1957848901548255600182019150600185019450602081019050614ef4565b86831015614f365784890154614f32601f891682614ba4565b8355505b6001600288020188555050505b5050505050505b565b7f45524337323155524953746f726167653a2055524920736574206f66206e6f6e60008201527f6578697374656e7420746f6b656e000000000000000000000000000000000000602082015250565b6000614fa8602e8361386e565b9150614fb382614f4c565b604082019050919050565b60006020820190508181036000830152614fd781614f9b565b9050919050565b7f4552433732313a207472616e736665722066726f6d20696e636f72726563742060008201527f6f776e6572000000000000000000000000000000000000000000000000000000602082015250565b600061503a60258361386e565b915061504582614fde565b604082019050919050565b600060208201905081810360008301526150698161502d565b9050919050565b7f4552433732313a207472616e7366657220746f20746865207a65726f2061646460008201527f7265737300000000000000000000000000000000000000000000000000000000602082015250565b60006150cc60248361386e565b91506150d782615070565b604082019050919050565b600060208201905081810360008301526150fb816150bf565b9050919050565b7f4552433732313a20617070726f766520746f2063616c6c657200000000000000600082015250565b600061513860198361386e565b915061514382615102565b602082019050919050565b600060208201905081810360008301526151678161512b565b9050919050565b7f4552433732313a207472616e7366657220746f206e6f6e20455243373231526560008201527f63656976657220696d706c656d656e7465720000000000000000000000000000602082015250565b60006151ca60328361386e565b91506151d58261516e565b604082019050919050565b600060208201905081810360008301526151f9816151bd565b9050919050565b600081905092915050565b600061521682613863565b6152208185615200565b935061523081856020860161387f565b80840191505092915050565b6000615248828561520b565b9150615254828461520b565b91508190509392505050565b600081519050919050565b600082825260208201905092915050565b600061528782615260565b615291818561526b565b93506152a181856020860161387f565b6152aa816138a9565b840191505092915050565b60006080820190506152ca60008301876139aa565b6152d760208301866139aa565b6152e46040830185613a40565b81810360608301526152f6818461527c565b905095945050505050565b600081519050615310816137d4565b92915050565b60006020828403121561532c5761532b61379e565b5b600061533a84828501615301565b91505092915050565b7f4552433732313a206d696e7420746f20746865207a65726f2061646472657373600082015250565b600061537960208361386e565b915061538482615343565b602082019050919050565b600060208201905081810360008301526153a88161536c565b9050919050565b7f4552433732313a20746f6b656e20616c7265616479206d696e74656400000000600082015250565b60006153e5601c8361386e565b91506153f0826153af565b602082019050919050565b60006020820190508181036000830152615414816153d8565b905091905056fea264697066735822122089495f87c4ba39a172eda19ae8c29c866b54c22b4bedff12d10462e385db04fe64736f6c63430008120033",
  "linkReferences": {},
  "deployedLinkReferences": {}
}