{
  "_format": "hh-sol-artifact-1",
  "contractName": "HackSpace",
  "sourceName": "contracts/HackSpace.sol",
  "abi": [
    {
      "inputs": [],
      "stateMutability": "nonpayable",
      "type": "constructor"
    },
    {
      "inputs": [
        {
          "internalType": "uint256",
          "name": "eventId",
          "type": "uint256"
        },
        {
          "internalType": "string",
          "name": "name",
          "type": "string"
        }
      ],
      "name": "addAward",
      "outputs": [],
      "stateMutability": "payable",
      "type": "function"
    },
    {
      "inputs": [
        {
          "internalType": "string",
          "name": "name",
          "type": "string"
        }
      ],
      "name": "addEvent",
      "outputs": [],
      "stateMutability": "nonpayable",
      "type": "function"
    },
    {
      "inputs": [
        {
          "internalType": "uint256",
          "name": "eventId",
          "type": "uint256"
        },
        {
          "internalType": "uint256",
          "name": "teamId",
          "type": "uint256"
        },
        {
          "internalType": "address payable",
          "name": "member",
          "type": "address"
        }
      ],
      "name": "addMember",
      "outputs": [],
      "stateMutability": "nonpayable",
      "type": "function"
    },
    {
      "inputs": [
        {
          "internalType": "uint256",
          "name": "eventId",
          "type": "uint256"
        },
        {
          "internalType": "uint256",
          "name": "awardId",
          "type": "uint256"
        },
        {
          "internalType": "uint256",
          "name": "teamId",
          "type": "uint256"
        }
      ],
      "name": "claimAward",
      "outputs": [],
      "stateMutability": "nonpayable",
      "type": "function"
    },
    {
      "inputs": [
        {
          "internalType": "uint256",
          "name": "eventId",
          "type": "uint256"
        },
        {
          "internalType": "uint256",
          "name": "awardId",
          "type": "uint256"
        },
        {
          "internalType": "uint256",
          "name": "teamId",
          "type": "uint256"
        }
      ],
      "name": "designateAward",
      "outputs": [],
      "stateMutability": "nonpayable",
      "type": "function"
    },
    {
      "inputs": [
        {
          "internalType": "uint256",
          "name": "",
          "type": "uint256"
        }
      ],
      "name": "events",
      "outputs": [
        {
          "internalType": "string",
          "name": "name",
          "type": "string"
        },
        {
          "internalType": "uint256",
          "name": "id",
          "type": "uint256"
        },
        {
          "internalType": "address",
          "name": "organizer",
          "type": "address"
        },
        {
          "internalType": "bool",
          "name": "allowSignup",
          "type": "bool"
        }
      ],
      "stateMutability": "view",
      "type": "function"
    },
    {
      "inputs": [
        {
          "internalType": "uint256",
          "name": "eventId",
          "type": "uint256"
        },
        {
          "internalType": "string",
          "name": "name",
          "type": "string"
        }
      ],
      "name": "joinEvent",
      "outputs": [],
      "stateMutability": "nonpayable",
      "type": "function"
    },
    {
      "inputs": [],
      "name": "numEvents",
      "outputs": [
        {
          "internalType": "uint256",
          "name": "",
          "type": "uint256"
        }
      ],
      "stateMutability": "view",
      "type": "function"
    },
    {
      "inputs": [],
      "name": "owner",
      "outputs": [
        {
          "internalType": "address",
          "name": "",
          "type": "address"
        }
      ],
      "stateMutability": "view",
      "type": "function"
    }
  ],
  "bytecode": "0x608060405234801561001057600080fd5b50336000806101000a81548173ffffffffffffffffffffffffffffffffffffffff021916908373ffffffffffffffffffffffffffffffffffffffff1602179055506000600281905550612391806100686000396000f3fe6080604052600436106100865760003560e01c80638da5cb5b116100595780638da5cb5b1461013b57806396de7cf314610166578063df18a00e1461018f578063eda039ac146101b8578063feaa3394146101e157610086565b80630b7914301461008b5780631e5832ed146100cb5780632523d95e146100f457806334cf562b14610110575b600080fd5b34801561009757600080fd5b506100b260048036038101906100ad91906115c5565b61020a565b6040516100c294939291906116ed565b60405180910390f35b3480156100d757600080fd5b506100f260048036038101906100ed9190611739565b6102ef565b005b61010e600480360381019061010991906118c1565b610711565b005b34801561011c57600080fd5b50610125610906565b604051610132919061191d565b60405180910390f35b34801561014757600080fd5b5061015061090c565b60405161015d9190611938565b60405180910390f35b34801561017257600080fd5b5061018d60048036038101906101889190611991565b610930565b005b34801561019b57600080fd5b506101b660048036038101906101b191906118c1565b610b17565b005b3480156101c457600080fd5b506101df60048036038101906101da9190611739565b610c95565b005b3480156101ed57600080fd5b50610208600480360381019061020391906119e4565b610f46565b005b600160205280600052604060002060009150905080600001805461022d90611a5c565b80601f016020809104026020016040519081016040528092919081815260200182805461025990611a5c565b80156102a65780601f1061027b576101008083540402835291602001916102a6565b820191906000526020600020905b81548152906001019060200180831161028957829003601f168201915b5050505050908060010154908060030160009054906101000a900473ffffffffffffffffffffffffffffffffffffffff16908060050160009054906101000a900460ff16905084565b6002548310610333576040517f08c379a000000000000000000000000000000000000000000000000000000000815260040161032a90611ad9565b60405180910390fd5b600060016000858152602001908152602001600020905080600401805490508310610393576040517f08c379a000000000000000000000000000000000000000000000000000000000815260040161038a90611b45565b60405180910390fd5b60008160040184815481106103ab576103aa611b65565b5b9060005260206000209060070201905081600201805490508310610404576040517f08c379a00000000000000000000000000000000000000000000000000000000081526004016103fb90611be0565b60405180910390fd5b600082600201848154811061041c5761041b611b65565b5b906000526020600020906003020190508060020160008154811061044357610442611b65565b5b9060005260206000200160009054906101000a900473ffffffffffffffffffffffffffffffffffffffff1673ffffffffffffffffffffffffffffffffffffffff163373ffffffffffffffffffffffffffffffffffffffff16146104db576040517f08c379a00000000000000000000000000000000000000000000000000000000081526004016104d290611c4c565b60405180910390fd5b8160060160019054906101000a900460ff16801561050757508160060160019054906101000a900460ff165b610546576040517f08c379a000000000000000000000000000000000000000000000000000000000815260040161053d90611cb8565b60405180910390fd5b8382600501541461058c576040517f08c379a000000000000000000000000000000000000000000000000000000000815260040161058390611d4a565b60405180910390fd5b838260040154146105d2576040517f08c379a00000000000000000000000000000000000000000000000000000000081526004016105c990611ddc565b60405180910390fd5b8160060160029054906101000a900460ff1615610624576040517f08c379a000000000000000000000000000000000000000000000000000000000815260040161061b90611e48565b60405180910390fd5b60018260060160026101000a81548160ff02191690831515021790555060008160020180549050905060008360020154905060005b828110156107065783600201818154811061067757610676611b65565b5b9060005260206000200160009054906101000a900473ffffffffffffffffffffffffffffffffffffffff1673ffffffffffffffffffffffffffffffffffffffff166108fc84846106c79190611ec6565b9081150290604051600060405180830381858888f193505050501580156106f2573d6000803e3d6000fd5b5080806106fe90611ef7565b915050610659565b505050505050505050565b6002548210610755576040517f08c379a000000000000000000000000000000000000000000000000000000000815260040161074c90611ad9565b60405180910390fd5b60006001600084815260200190815260200160002090506000816004018054905090506000339050600034905060006040518061012001604052808781526020018581526020018381526020018473ffffffffffffffffffffffffffffffffffffffff168152602001600081526020016000815260200160001515815260200160001515815260200160001515815250905084600401819080600181540180825580915050600190039060005260206000209060070201600090919091909150600082015181600001908161082a91906120eb565b50602082015181600101556040820151816002015560608201518160030160006101000a81548173ffffffffffffffffffffffffffffffffffffffff021916908373ffffffffffffffffffffffffffffffffffffffff1602179055506080820151816004015560a0820151816005015560c08201518160060160006101000a81548160ff02191690831515021790555060e08201518160060160016101000a81548160ff0219169083151502179055506101008201518160060160026101000a81548160ff021916908315150217905550505050505050505050565b60025481565b60008054906101000a900473ffffffffffffffffffffffffffffffffffffffff1681565b6002548310610974576040517f08c379a000000000000000000000000000000000000000000000000000000000815260040161096b90611ad9565b60405180910390fd5b6000600160008581526020019081526020016000209050806002018054905083106109d4576040517f08c379a00000000000000000000000000000000000000000000000000000000081526004016109cb90611be0565b60405180910390fd5b60008160020184815481106109ec576109eb611b65565b5b9060005260206000209060030201905080600201600081548110610a1357610a12611b65565b5b9060005260206000200160009054906101000a900473ffffffffffffffffffffffffffffffffffffffff1673ffffffffffffffffffffffffffffffffffffffff163373ffffffffffffffffffffffffffffffffffffffff1614610aab576040517f08c379a0000000000000000000000000000000000000000000000000000000008152600401610aa290611c4c565b60405180910390fd5b80600201839080600181540180825580915050600190039060005260206000200160009091909190916101000a81548173ffffffffffffffffffffffffffffffffffffffff021916908373ffffffffffffffffffffffffffffffffffffffff1602179055505050505050565b6002548210610b5b576040517f08c379a0000000000000000000000000000000000000000000000000000000008152600401610b5290611ad9565b60405180910390fd5b6000600160008481526020019081526020016000209050600081600201805490509050610b86611106565b83816000018190525084816020018181525050826002018190806001815401808255809150506001900390600052602060002090600302016000909190919091506000820151816000019081610bdc91906120eb565b50602082015181600101556040820151816002019080519060200190610c03929190611127565b505050826002018281548110610c1c57610c1b611b65565b5b9060005260206000209060030201600201339080600181540180825580915050600190039060005260206000200160009091909190916101000a81548173ffffffffffffffffffffffffffffffffffffffff021916908373ffffffffffffffffffffffffffffffffffffffff1602179055505050505050565b6002548310610cd9576040517f08c379a0000000000000000000000000000000000000000000000000000000008152600401610cd090611ad9565b60405180910390fd5b600060016000858152602001908152602001600020905080600401805490508310610d39576040517f08c379a0000000000000000000000000000000000000000000000000000000008152600401610d3090611b45565b60405180910390fd5b6000816004018481548110610d5157610d50611b65565b5b9060005260206000209060070201905081600201805490508310610daa576040517f08c379a0000000000000000000000000000000000000000000000000000000008152600401610da190611be0565b60405180910390fd5b8160030160009054906101000a900473ffffffffffffffffffffffffffffffffffffffff1673ffffffffffffffffffffffffffffffffffffffff163373ffffffffffffffffffffffffffffffffffffffff161480610e5757508060030160009054906101000a900473ffffffffffffffffffffffffffffffffffffffff1673ffffffffffffffffffffffffffffffffffffffff163373ffffffffffffffffffffffffffffffffffffffff16145b610e96576040517f08c379a0000000000000000000000000000000000000000000000000000000008152600401610e8d90612209565b60405180910390fd5b8160030160009054906101000a900473ffffffffffffffffffffffffffffffffffffffff1673ffffffffffffffffffffffffffffffffffffffff163373ffffffffffffffffffffffffffffffffffffffff1603610f185782816005018190555060018160060160016101000a81548160ff021916908315150217905550610f3f565b82816004018190555060018160060160006101000a81548160ff0219169083151502179055505b5050505050565b60006001600254610f579190612229565b90506000339050600060016000848152602001908152602001600020905083816000019081610f8691906120eb565b50828160010181905550818160030160006101000a81548173ffffffffffffffffffffffffffffffffffffffff021916908373ffffffffffffffffffffffffffffffffffffffff16021790555060008160050160006101000a81548160ff0219169083151502179055508060016000858152602001908152602001600020600082018160000190816110189190612273565b506001820154816001015560028201816002019080546110399291906111b1565b506003820160009054906101000a900473ffffffffffffffffffffffffffffffffffffffff168160030160006101000a81548173ffffffffffffffffffffffffffffffffffffffff021916908373ffffffffffffffffffffffffffffffffffffffff16021790555060048201816004019080546110b792919061123f565b506005820160009054906101000a900460ff168160050160006101000a81548160ff021916908315150217905550905050600260008154809291906110fb90611ef7565b919050555050505050565b60405180606001604052806060815260200160008152602001606081525090565b8280548282559060005260206000209081019282156111a0579160200282015b8281111561119f5782518260006101000a81548173ffffffffffffffffffffffffffffffffffffffff021916908373ffffffffffffffffffffffffffffffffffffffff16021790555091602001919060010190611147565b5b5090506111ad91906113c2565b5090565b82805482825590600052602060002090600302810192821561122e5760005260206000209160030282015b8281111561122d578282600082018160000190816111fa9190612273565b5060018201548160010155600282018160020190805461121b9291906113df565b505050916003019190600301906111dc565b5b50905061123b9190611431565b5090565b8280548282559060005260206000209060070281019282156113b15760005260206000209160070282015b828111156113b0578282600082018160000190816112889190612273565b5060018201548160010155600282015481600201556003820160009054906101000a900473ffffffffffffffffffffffffffffffffffffffff168160030160006101000a81548173ffffffffffffffffffffffffffffffffffffffff021916908373ffffffffffffffffffffffffffffffffffffffff16021790555060048201548160040155600582015481600501556006820160009054906101000a900460ff168160060160006101000a81548160ff0219169083151502179055506006820160019054906101000a900460ff168160060160016101000a81548160ff0219169083151502179055506006820160029054906101000a900460ff168160060160026101000a81548160ff02191690831515021790555050509160070191906007019061126a565b5b5090506113be9190611470565b5090565b5b808211156113db5760008160009055506001016113c3565b5090565b8280548282559060005260206000209081019282156114205760005260206000209182015b8281111561141f578254825591600101919060010190611404565b5b50905061142d91906113c2565b5090565b5b8082111561146c576000808201600061144b919061151a565b6001820160009055600282016000611463919061155a565b50600301611432565b5090565b5b80821115611516576000808201600061148a919061151a565b600182016000905560028201600090556003820160006101000a81549073ffffffffffffffffffffffffffffffffffffffff0219169055600482016000905560058201600090556006820160006101000a81549060ff02191690556006820160016101000a81549060ff02191690556006820160026101000a81549060ff021916905550600701611471565b5090565b50805461152690611a5c565b6000825580601f106115385750611557565b601f01602090049060005260206000209081019061155691906113c2565b5b50565b508054600082559060005260206000209081019061157891906113c2565b50565b6000604051905090565b600080fd5b600080fd5b6000819050919050565b6115a28161158f565b81146115ad57600080fd5b50565b6000813590506115bf81611599565b92915050565b6000602082840312156115db576115da611585565b5b60006115e9848285016115b0565b91505092915050565b600081519050919050565b600082825260208201905092915050565b60005b8381101561162c578082015181840152602081019050611611565b60008484015250505050565b6000601f19601f8301169050919050565b6000611654826115f2565b61165e81856115fd565b935061166e81856020860161160e565b61167781611638565b840191505092915050565b61168b8161158f565b82525050565b600073ffffffffffffffffffffffffffffffffffffffff82169050919050565b60006116bc82611691565b9050919050565b6116cc816116b1565b82525050565b60008115159050919050565b6116e7816116d2565b82525050565b600060808201905081810360008301526117078187611649565b90506117166020830186611682565b61172360408301856116c3565b61173060608301846116de565b95945050505050565b60008060006060848603121561175257611751611585565b5b6000611760868287016115b0565b9350506020611771868287016115b0565b9250506040611782868287016115b0565b9150509250925092565b600080fd5b600080fd5b7f4e487b7100000000000000000000000000000000000000000000000000000000600052604160045260246000fd5b6117ce82611638565b810181811067ffffffffffffffff821117156117ed576117ec611796565b5b80604052505050565b600061180061157b565b905061180c82826117c5565b919050565b600067ffffffffffffffff82111561182c5761182b611796565b5b61183582611638565b9050602081019050919050565b82818337600083830152505050565b600061186461185f84611811565b6117f6565b9050828152602081018484840111156118805761187f611791565b5b61188b848285611842565b509392505050565b600082601f8301126118a8576118a761178c565b5b81356118b8848260208601611851565b91505092915050565b600080604083850312156118d8576118d7611585565b5b60006118e6858286016115b0565b925050602083013567ffffffffffffffff8111156119075761190661158a565b5b61191385828601611893565b9150509250929050565b60006020820190506119326000830184611682565b92915050565b600060208201905061194d60008301846116c3565b92915050565b600061195e82611691565b9050919050565b61196e81611953565b811461197957600080fd5b50565b60008135905061198b81611965565b92915050565b6000806000606084860312156119aa576119a9611585565b5b60006119b8868287016115b0565b93505060206119c9868287016115b0565b92505060406119da8682870161197c565b9150509250925092565b6000602082840312156119fa576119f9611585565b5b600082013567ffffffffffffffff811115611a1857611a1761158a565b5b611a2484828501611893565b91505092915050565b7f4e487b7100000000000000000000000000000000000000000000000000000000600052602260045260246000fd5b60006002820490506001821680611a7457607f821691505b602082108103611a8757611a86611a2d565b5b50919050565b7f6e6f7420612076616c6964206576656e74496400000000000000000000000000600082015250565b6000611ac36013836115fd565b9150611ace82611a8d565b602082019050919050565b60006020820190508181036000830152611af281611ab6565b9050919050565b7f6e6f7420612076616c6964206177617264496400000000000000000000000000600082015250565b6000611b2f6013836115fd565b9150611b3a82611af9565b602082019050919050565b60006020820190508181036000830152611b5e81611b22565b9050919050565b7f4e487b7100000000000000000000000000000000000000000000000000000000600052603260045260246000fd5b7f6e6f7420612076616c6964207465616d49640000000000000000000000000000600082015250565b6000611bca6012836115fd565b9150611bd582611b94565b602082019050919050565b60006020820190508181036000830152611bf981611bbd565b9050919050565b7f796f7520617265206e6f74207465616d206c6561646572000000000000000000600082015250565b6000611c366017836115fd565b9150611c4182611c00565b602082019050919050565b60006020820190508181036000830152611c6581611c29565b9050919050565b7f6177617264206e6f742064657369676e61746564207965740000000000000000600082015250565b6000611ca26018836115fd565b9150611cad82611c6c565b602082019050919050565b60006020820190508181036000830152611cd181611c95565b9050919050565b7f796f752077657265206e6f742063686f73656e20627920746865206f7267616e60008201527f697a657200000000000000000000000000000000000000000000000000000000602082015250565b6000611d346024836115fd565b9150611d3f82611cd8565b604082019050919050565b60006020820190508181036000830152611d6381611d27565b9050919050565b7f796f752077657265206e6f742063686f73656e206279207468652073706f6e7360008201527f6f72000000000000000000000000000000000000000000000000000000000000602082015250565b6000611dc66022836115fd565b9150611dd182611d6a565b604082019050919050565b60006020820190508181036000830152611df581611db9565b9050919050565b7f61776172642077617320616c72656164792072656c6561736564000000000000600082015250565b6000611e32601a836115fd565b9150611e3d82611dfc565b602082019050919050565b60006020820190508181036000830152611e6181611e25565b9050919050565b7f4e487b7100000000000000000000000000000000000000000000000000000000600052601260045260246000fd5b7f4e487b7100000000000000000000000000000000000000000000000000000000600052601160045260246000fd5b6000611ed18261158f565b9150611edc8361158f565b925082611eec57611eeb611e68565b5b828204905092915050565b6000611f028261158f565b91507fffffffffffffffffffffffffffffffffffffffffffffffffffffffffffffffff8203611f3457611f33611e97565b5b600182019050919050565b60008190508160005260206000209050919050565b60006020601f8301049050919050565b600082821b905092915050565b600060088302611fa17fffffffffffffffffffffffffffffffffffffffffffffffffffffffffffffffff82611f64565b611fab8683611f64565b95508019841693508086168417925050509392505050565b6000819050919050565b6000611fe8611fe3611fde8461158f565b611fc3565b61158f565b9050919050565b6000819050919050565b61200283611fcd565b61201661200e82611fef565b848454611f71565b825550505050565b600090565b61202b61201e565b612036818484611ff9565b505050565b5b8181101561205a5761204f600082612023565b60018101905061203c565b5050565b601f82111561209f5761207081611f3f565b61207984611f54565b81016020851015612088578190505b61209c61209485611f54565b83018261203b565b50505b505050565b600082821c905092915050565b60006120c2600019846008026120a4565b1980831691505092915050565b60006120db83836120b1565b9150826002028217905092915050565b6120f4826115f2565b67ffffffffffffffff81111561210d5761210c611796565b5b6121178254611a5c565b61212282828561205e565b600060209050601f8311600181146121555760008415612143578287015190505b61214d85826120cf565b8655506121b5565b601f19841661216386611f3f565b60005b8281101561218b57848901518255600182019150602085019450602081019050612166565b868310156121a857848901516121a4601f8916826120b1565b8355505b6001600288020188555050505b505050505050565b7f6e6f74206f7267616e697a6572206f722073706f6e736f720000000000000000600082015250565b60006121f36018836115fd565b91506121fe826121bd565b602082019050919050565b60006020820190508181036000830152612222816121e6565b9050919050565b60006122348261158f565b915061223f8361158f565b925082820190508082111561225757612256611e97565b5b92915050565b60008154905061226c81611a5c565b9050919050565b818103612281575050612359565b61228a8261225d565b67ffffffffffffffff8111156122a3576122a2611796565b5b6122ad8254611a5c565b6122b882828561205e565b6000601f8311600181146122e757600084156122d5578287015490505b6122df85826120cf565b865550612352565b601f1984166122f587611f3f565b965061230086611f3f565b60005b8281101561232857848901548255600182019150600185019450602081019050612303565b868310156123455784890154612341601f8916826120b1565b8355505b6001600288020188555050505b5050505050505b56fea2646970667358221220de33b2b8b456652e1478e6ccd2a8540e0496815bf48e24223acf7019d4b332c364736f6c63430008120033",
  "linkReferences": {},
  "deployedLinkReferences": {}
}