{
  "_format": "hh-sol-artifact-1",
  "contractName": "HackSpace",
  "sourceName": "contracts/HackSpace.sol",
  "abi": [
    {
      "inputs": [],
      "stateMutability": "nonpayable",
      "type": "constructor"
    },
    {
      "inputs": [
        {
          "internalType": "uint256",
          "name": "eventId",
          "type": "uint256"
        },
        {
          "internalType": "string",
          "name": "name",
          "type": "string"
        }
      ],
      "name": "addAward",
      "outputs": [],
      "stateMutability": "payable",
      "type": "function"
    },
    {
      "inputs": [
        {
          "internalType": "string",
          "name": "name",
          "type": "string"
        }
      ],
      "name": "addEvent",
      "outputs": [],
      "stateMutability": "nonpayable",
      "type": "function"
    },
    {
      "inputs": [
        {
          "internalType": "uint256",
          "name": "eventId",
          "type": "uint256"
        },
        {
          "internalType": "uint256",
          "name": "teamId",
          "type": "uint256"
        },
        {
          "internalType": "address payable",
          "name": "member",
          "type": "address"
        }
      ],
      "name": "addMember",
      "outputs": [],
      "stateMutability": "nonpayable",
      "type": "function"
    },
    {
      "inputs": [
        {
          "internalType": "uint256",
          "name": "eventId",
          "type": "uint256"
        },
        {
          "internalType": "uint256",
          "name": "awardId",
          "type": "uint256"
        },
        {
          "internalType": "uint256",
          "name": "teamId",
          "type": "uint256"
        }
      ],
      "name": "claimAward",
      "outputs": [],
      "stateMutability": "nonpayable",
      "type": "function"
    },
    {
      "inputs": [
        {
          "internalType": "uint256",
          "name": "eventId",
          "type": "uint256"
        },
        {
          "internalType": "uint256",
          "name": "awardId",
          "type": "uint256"
        },
        {
          "internalType": "uint256",
          "name": "teamId",
          "type": "uint256"
        }
      ],
      "name": "designateAward",
      "outputs": [],
      "stateMutability": "nonpayable",
      "type": "function"
    },
    {
      "inputs": [
        {
          "internalType": "uint256",
          "name": "",
          "type": "uint256"
        }
      ],
      "name": "events",
      "outputs": [
        {
          "internalType": "string",
          "name": "name",
          "type": "string"
        },
        {
          "internalType": "uint256",
          "name": "id",
          "type": "uint256"
        },
        {
          "internalType": "address",
          "name": "organizer",
          "type": "address"
        },
        {
          "internalType": "bool",
          "name": "allowSignup",
          "type": "bool"
        }
      ],
      "stateMutability": "view",
      "type": "function"
    },
    {
      "inputs": [
        {
          "internalType": "uint256",
          "name": "eventId",
          "type": "uint256"
        },
        {
          "internalType": "string",
          "name": "name",
          "type": "string"
        }
      ],
      "name": "joinEvent",
      "outputs": [],
      "stateMutability": "nonpayable",
      "type": "function"
    },
    {
      "inputs": [],
      "name": "numEvents",
      "outputs": [
        {
          "internalType": "uint256",
          "name": "",
          "type": "uint256"
        }
      ],
      "stateMutability": "view",
      "type": "function"
    },
    {
      "inputs": [],
      "name": "owner",
      "outputs": [
        {
          "internalType": "address",
          "name": "",
          "type": "address"
        }
      ],
      "stateMutability": "view",
      "type": "function"
    },
    {
      "inputs": [
        {
          "internalType": "uint256",
          "name": "eventId",
          "type": "uint256"
        },
        {
          "internalType": "uint256",
          "name": "awardId",
          "type": "uint256"
        }
      ],
      "name": "viewAward",
      "outputs": [
        {
          "components": [
            {
              "internalType": "string",
              "name": "name",
              "type": "string"
            },
            {
              "internalType": "uint256",
              "name": "id",
              "type": "uint256"
            },
            {
              "internalType": "uint256",
              "name": "prize",
              "type": "uint256"
            },
            {
              "internalType": "address",
              "name": "sponsor",
              "type": "address"
            },
            {
              "internalType": "uint256",
              "name": "sponsorDesignation",
              "type": "uint256"
            },
            {
              "internalType": "uint256",
              "name": "organizerDesignation",
              "type": "uint256"
            },
            {
              "internalType": "bool",
              "name": "hasSponsorDesignated",
              "type": "bool"
            },
            {
              "internalType": "bool",
              "name": "hasOrganizerDesignated",
              "type": "bool"
            },
            {
              "internalType": "bool",
              "name": "awarded",
              "type": "bool"
            }
          ],
          "internalType": "struct HackSpace.Award",
          "name": "",
          "type": "tuple"
        }
      ],
      "stateMutability": "view",
      "type": "function"
    },
    {
      "inputs": [
        {
          "internalType": "uint256",
          "name": "eventId",
          "type": "uint256"
        }
      ],
      "name": "viewAwardsNum",
      "outputs": [
        {
          "internalType": "uint256",
          "name": "",
          "type": "uint256"
        }
      ],
      "stateMutability": "view",
      "type": "function"
    },
    {
      "inputs": [
        {
          "internalType": "uint256",
          "name": "eventId",
          "type": "uint256"
        },
        {
          "internalType": "uint256",
          "name": "teamId",
          "type": "uint256"
        },
        {
          "internalType": "uint256",
          "name": "member_index",
          "type": "uint256"
        }
      ],
      "name": "viewMember",
      "outputs": [
        {
          "internalType": "address payable",
          "name": "",
          "type": "address"
        }
      ],
      "stateMutability": "view",
      "type": "function"
    },
    {
      "inputs": [
        {
          "internalType": "uint256",
          "name": "eventId",
          "type": "uint256"
        },
        {
          "internalType": "uint256",
          "name": "teamId",
          "type": "uint256"
        }
      ],
      "name": "viewMembersNum",
      "outputs": [
        {
          "internalType": "uint256",
          "name": "",
          "type": "uint256"
        }
      ],
      "stateMutability": "view",
      "type": "function"
    },
    {
      "inputs": [
        {
          "internalType": "uint256",
          "name": "eventId",
          "type": "uint256"
        },
        {
          "internalType": "uint256",
          "name": "teamId",
          "type": "uint256"
        }
      ],
      "name": "viewTeam",
      "outputs": [
        {
          "components": [
            {
              "internalType": "string",
              "name": "name",
              "type": "string"
            },
            {
              "internalType": "uint256",
              "name": "id",
              "type": "uint256"
            },
            {
              "internalType": "address payable[]",
              "name": "members",
              "type": "address[]"
            }
          ],
          "internalType": "struct HackSpace.Team",
          "name": "",
          "type": "tuple"
        }
      ],
      "stateMutability": "view",
      "type": "function"
    },
    {
      "inputs": [
        {
          "internalType": "uint256",
          "name": "eventId",
          "type": "uint256"
        }
      ],
      "name": "viewTeamsNum",
      "outputs": [
        {
          "internalType": "uint256",
          "name": "",
          "type": "uint256"
        }
      ],
      "stateMutability": "view",
      "type": "function"
    }
  ],
  "bytecode": "0x608060405234801561001057600080fd5b50336000806101000a81548173ffffffffffffffffffffffffffffffffffffffff021916908373ffffffffffffffffffffffffffffffffffffffff1602179055506000600281905550612d04806100686000396000f3fe6080604052600436106100e85760003560e01c806396de7cf31161008a578063b8da820811610059578063b8da820814610322578063df18a00e1461035f578063eda039ac14610388578063feaa3394146103b1576100e8565b806396de7cf314610242578063a30eff451461026b578063a3544c5b146102a8578063b5ee43c8146102e5576100e8565b80632523d95e116100c65780632523d95e1461019357806334cf562b146101af57806381d35e22146101da5780638da5cb5b14610217576100e8565b80630b791430146100ed5780631e5832ed1461012d5780632219751714610156575b600080fd5b3480156100f957600080fd5b50610114600480360381019061010f9190611c39565b6103da565b6040516101249493929190611d61565b60405180910390f35b34801561013957600080fd5b50610154600480360381019061014f9190611dad565b6104bf565b005b34801561016257600080fd5b5061017d60048036038101906101789190611e00565b6108e1565b60405161018a9190611f7c565b60405180910390f35b6101ad60048036038101906101a891906120d3565b610a94565b005b3480156101bb57600080fd5b506101c4610c89565b6040516101d1919061212f565b60405180910390f35b3480156101e657600080fd5b5061020160048036038101906101fc9190611c39565b610c8f565b60405161020e919061212f565b60405180910390f35b34801561022357600080fd5b5061022c610cb2565b604051610239919061214a565b60405180910390f35b34801561024e57600080fd5b50610269600480360381019061026491906121a3565b610cd6565b005b34801561027757600080fd5b50610292600480360381019061028d9190611e00565b610ebd565b60405161029f919061212f565b60405180910390f35b3480156102b457600080fd5b506102cf60048036038101906102ca9190611e00565b610f04565b6040516102dc919061230b565b60405180910390f35b3480156102f157600080fd5b5061030c60048036038101906103079190611c39565b61107f565b604051610319919061212f565b60405180910390f35b34801561032e57600080fd5b5061034960048036038101906103449190611dad565b6110a2565b604051610356919061233c565b60405180910390f35b34801561036b57600080fd5b50610386600480360381019061038191906120d3565b611123565b005b34801561039457600080fd5b506103af60048036038101906103aa9190611dad565b6112a1565b005b3480156103bd57600080fd5b506103d860048036038101906103d39190612357565b611552565b005b60016020528060005260406000206000915090508060000180546103fd906123cf565b80601f0160208091040260200160405190810160405280929190818152602001828054610429906123cf565b80156104765780601f1061044b57610100808354040283529160200191610476565b820191906000526020600020905b81548152906001019060200180831161045957829003601f168201915b5050505050908060010154908060030160009054906101000a900473ffffffffffffffffffffffffffffffffffffffff16908060050160009054906101000a900460ff16905084565b6002548310610503576040517f08c379a00000000000000000000000000000000000000000000000000000000081526004016104fa9061244c565b60405180910390fd5b600060016000858152602001908152602001600020905080600401805490508310610563576040517f08c379a000000000000000000000000000000000000000000000000000000000815260040161055a906124b8565b60405180910390fd5b600081600401848154811061057b5761057a6124d8565b5b90600052602060002090600702019050816002018054905083106105d4576040517f08c379a00000000000000000000000000000000000000000000000000000000081526004016105cb90612553565b60405180910390fd5b60008260020184815481106105ec576105eb6124d8565b5b9060005260206000209060030201905080600201600081548110610613576106126124d8565b5b9060005260206000200160009054906101000a900473ffffffffffffffffffffffffffffffffffffffff1673ffffffffffffffffffffffffffffffffffffffff163373ffffffffffffffffffffffffffffffffffffffff16146106ab576040517f08c379a00000000000000000000000000000000000000000000000000000000081526004016106a2906125bf565b60405180910390fd5b8160060160019054906101000a900460ff1680156106d757508160060160019054906101000a900460ff165b610716576040517f08c379a000000000000000000000000000000000000000000000000000000000815260040161070d9061262b565b60405180910390fd5b8382600501541461075c576040517f08c379a0000000000000000000000000000000000000000000000000000000008152600401610753906126bd565b60405180910390fd5b838260040154146107a2576040517f08c379a00000000000000000000000000000000000000000000000000000000081526004016107999061274f565b60405180910390fd5b8160060160029054906101000a900460ff16156107f4576040517f08c379a00000000000000000000000000000000000000000000000000000000081526004016107eb906127bb565b60405180910390fd5b60018260060160026101000a81548160ff02191690831515021790555060008160020180549050905060008360020154905060005b828110156108d657836002018181548110610847576108466124d8565b5b9060005260206000200160009054906101000a900473ffffffffffffffffffffffffffffffffffffffff1673ffffffffffffffffffffffffffffffffffffffff166108fc84846108979190612839565b9081150290604051600060405180830381858888f193505050501580156108c2573d6000803e3d6000fd5b5080806108ce9061286a565b915050610829565b505050505050505050565b6108e9611712565b600160008481526020019081526020016000206004018281548110610911576109106124d8565b5b90600052602060002090600702016040518061012001604052908160008201805461093b906123cf565b80601f0160208091040260200160405190810160405280929190818152602001828054610967906123cf565b80156109b45780601f10610989576101008083540402835291602001916109b4565b820191906000526020600020905b81548152906001019060200180831161099757829003601f168201915b5050505050815260200160018201548152602001600282015481526020016003820160009054906101000a900473ffffffffffffffffffffffffffffffffffffffff1673ffffffffffffffffffffffffffffffffffffffff1673ffffffffffffffffffffffffffffffffffffffff16815260200160048201548152602001600582015481526020016006820160009054906101000a900460ff161515151581526020016006820160019054906101000a900460ff161515151581526020016006820160029054906101000a900460ff161515151581525050905092915050565b6002548210610ad8576040517f08c379a0000000000000000000000000000000000000000000000000000000008152600401610acf9061244c565b60405180910390fd5b60006001600084815260200190815260200160002090506000816004018054905090506000339050600034905060006040518061012001604052808781526020018581526020018381526020018473ffffffffffffffffffffffffffffffffffffffff1681526020016000815260200160008152602001600015158152602001600015158152602001600015158152509050846004018190806001815401808255809150506001900390600052602060002090600702016000909190919091506000820151816000019081610bad9190612a5e565b50602082015181600101556040820151816002015560608201518160030160006101000a81548173ffffffffffffffffffffffffffffffffffffffff021916908373ffffffffffffffffffffffffffffffffffffffff1602179055506080820151816004015560a0820151816005015560c08201518160060160006101000a81548160ff02191690831515021790555060e08201518160060160016101000a81548160ff0219169083151502179055506101008201518160060160026101000a81548160ff021916908315150217905550505050505050505050565b60025481565b600060016000838152602001908152602001600020600401805490509050919050565b60008054906101000a900473ffffffffffffffffffffffffffffffffffffffff1681565b6002548310610d1a576040517f08c379a0000000000000000000000000000000000000000000000000000000008152600401610d119061244c565b60405180910390fd5b600060016000858152602001908152602001600020905080600201805490508310610d7a576040517f08c379a0000000000000000000000000000000000000000000000000000000008152600401610d7190612553565b60405180910390fd5b6000816002018481548110610d9257610d916124d8565b5b9060005260206000209060030201905080600201600081548110610db957610db86124d8565b5b9060005260206000200160009054906101000a900473ffffffffffffffffffffffffffffffffffffffff1673ffffffffffffffffffffffffffffffffffffffff163373ffffffffffffffffffffffffffffffffffffffff1614610e51576040517f08c379a0000000000000000000000000000000000000000000000000000000008152600401610e48906125bf565b60405180910390fd5b80600201839080600181540180825580915050600190039060005260206000200160009091909190916101000a81548173ffffffffffffffffffffffffffffffffffffffff021916908373ffffffffffffffffffffffffffffffffffffffff1602179055505050505050565b6000600160008481526020019081526020016000206002018281548110610ee757610ee66124d8565b5b906000526020600020906003020160020180549050905092915050565b610f0c61177a565b600160008481526020019081526020016000206002018281548110610f3457610f336124d8565b5b9060005260206000209060030201604051806060016040529081600082018054610f5d906123cf565b80601f0160208091040260200160405190810160405280929190818152602001828054610f89906123cf565b8015610fd65780601f10610fab57610100808354040283529160200191610fd6565b820191906000526020600020905b815481529060010190602001808311610fb957829003601f168201915b50505050508152602001600182015481526020016002820180548060200260200160405190810160405280929190818152602001828054801561106e57602002820191906000526020600020905b8160009054906101000a900473ffffffffffffffffffffffffffffffffffffffff1673ffffffffffffffffffffffffffffffffffffffff1681526020019060010190808311611024575b505050505081525050905092915050565b600060016000838152602001908152602001600020600201805490509050919050565b60006001600085815260200190815260200160002060020183815481106110cc576110cb6124d8565b5b906000526020600020906003020160020182815481106110ef576110ee6124d8565b5b9060005260206000200160009054906101000a900473ffffffffffffffffffffffffffffffffffffffff1690509392505050565b6002548210611167576040517f08c379a000000000000000000000000000000000000000000000000000000000815260040161115e9061244c565b60405180910390fd5b600060016000848152602001908152602001600020905060008160020180549050905061119261177a565b838160000181905250848160200181815250508260020181908060018154018082558091505060019003906000526020600020906003020160009091909190915060008201518160000190816111e89190612a5e565b5060208201518160010155604082015181600201908051906020019061120f92919061179b565b505050826002018281548110611228576112276124d8565b5b9060005260206000209060030201600201339080600181540180825580915050600190039060005260206000200160009091909190916101000a81548173ffffffffffffffffffffffffffffffffffffffff021916908373ffffffffffffffffffffffffffffffffffffffff1602179055505050505050565b60025483106112e5576040517f08c379a00000000000000000000000000000000000000000000000000000000081526004016112dc9061244c565b60405180910390fd5b600060016000858152602001908152602001600020905080600401805490508310611345576040517f08c379a000000000000000000000000000000000000000000000000000000000815260040161133c906124b8565b60405180910390fd5b600081600401848154811061135d5761135c6124d8565b5b90600052602060002090600702019050816002018054905083106113b6576040517f08c379a00000000000000000000000000000000000000000000000000000000081526004016113ad90612553565b60405180910390fd5b8160030160009054906101000a900473ffffffffffffffffffffffffffffffffffffffff1673ffffffffffffffffffffffffffffffffffffffff163373ffffffffffffffffffffffffffffffffffffffff16148061146357508060030160009054906101000a900473ffffffffffffffffffffffffffffffffffffffff1673ffffffffffffffffffffffffffffffffffffffff163373ffffffffffffffffffffffffffffffffffffffff16145b6114a2576040517f08c379a000000000000000000000000000000000000000000000000000000000815260040161149990612b7c565b60405180910390fd5b8160030160009054906101000a900473ffffffffffffffffffffffffffffffffffffffff1673ffffffffffffffffffffffffffffffffffffffff163373ffffffffffffffffffffffffffffffffffffffff16036115245782816005018190555060018160060160016101000a81548160ff02191690831515021790555061154b565b82816004018190555060018160060160006101000a81548160ff0219169083151502179055505b5050505050565b600060016002546115639190612b9c565b905060003390506000600160008481526020019081526020016000209050838160000190816115929190612a5e565b50828160010181905550818160030160006101000a81548173ffffffffffffffffffffffffffffffffffffffff021916908373ffffffffffffffffffffffffffffffffffffffff16021790555060008160050160006101000a81548160ff0219169083151502179055508060016000858152602001908152602001600020600082018160000190816116249190612be6565b50600182015481600101556002820181600201908054611645929190611825565b506003820160009054906101000a900473ffffffffffffffffffffffffffffffffffffffff168160030160006101000a81548173ffffffffffffffffffffffffffffffffffffffff021916908373ffffffffffffffffffffffffffffffffffffffff16021790555060048201816004019080546116c39291906118b3565b506005820160009054906101000a900460ff168160050160006101000a81548160ff021916908315150217905550905050600260008154809291906117079061286a565b919050555050505050565b604051806101200160405280606081526020016000815260200160008152602001600073ffffffffffffffffffffffffffffffffffffffff16815260200160008152602001600081526020016000151581526020016000151581526020016000151581525090565b60405180606001604052806060815260200160008152602001606081525090565b828054828255906000526020600020908101928215611814579160200282015b828111156118135782518260006101000a81548173ffffffffffffffffffffffffffffffffffffffff021916908373ffffffffffffffffffffffffffffffffffffffff160217905550916020019190600101906117bb565b5b5090506118219190611a36565b5090565b8280548282559060005260206000209060030281019282156118a25760005260206000209160030282015b828111156118a15782826000820181600001908161186e9190612be6565b5060018201548160010155600282018160020190805461188f929190611a53565b50505091600301919060030190611850565b5b5090506118af9190611aa5565b5090565b828054828255906000526020600020906007028101928215611a255760005260206000209160070282015b82811115611a24578282600082018160000190816118fc9190612be6565b5060018201548160010155600282015481600201556003820160009054906101000a900473ffffffffffffffffffffffffffffffffffffffff168160030160006101000a81548173ffffffffffffffffffffffffffffffffffffffff021916908373ffffffffffffffffffffffffffffffffffffffff16021790555060048201548160040155600582015481600501556006820160009054906101000a900460ff168160060160006101000a81548160ff0219169083151502179055506006820160019054906101000a900460ff168160060160016101000a81548160ff0219169083151502179055506006820160029054906101000a900460ff168160060160026101000a81548160ff0219169083151502179055505050916007019190600701906118de565b5b509050611a329190611ae4565b5090565b5b80821115611a4f576000816000905550600101611a37565b5090565b828054828255906000526020600020908101928215611a945760005260206000209182015b82811115611a93578254825591600101919060010190611a78565b5b509050611aa19190611a36565b5090565b5b80821115611ae05760008082016000611abf9190611b8e565b6001820160009055600282016000611ad79190611bce565b50600301611aa6565b5090565b5b80821115611b8a5760008082016000611afe9190611b8e565b600182016000905560028201600090556003820160006101000a81549073ffffffffffffffffffffffffffffffffffffffff0219169055600482016000905560058201600090556006820160006101000a81549060ff02191690556006820160016101000a81549060ff02191690556006820160026101000a81549060ff021916905550600701611ae5565b5090565b508054611b9a906123cf565b6000825580601f10611bac5750611bcb565b601f016020900490600052602060002090810190611bca9190611a36565b5b50565b5080546000825590600052602060002090810190611bec9190611a36565b50565b6000604051905090565b600080fd5b600080fd5b6000819050919050565b611c1681611c03565b8114611c2157600080fd5b50565b600081359050611c3381611c0d565b92915050565b600060208284031215611c4f57611c4e611bf9565b5b6000611c5d84828501611c24565b91505092915050565b600081519050919050565b600082825260208201905092915050565b60005b83811015611ca0578082015181840152602081019050611c85565b60008484015250505050565b6000601f19601f8301169050919050565b6000611cc882611c66565b611cd28185611c71565b9350611ce2818560208601611c82565b611ceb81611cac565b840191505092915050565b611cff81611c03565b82525050565b600073ffffffffffffffffffffffffffffffffffffffff82169050919050565b6000611d3082611d05565b9050919050565b611d4081611d25565b82525050565b60008115159050919050565b611d5b81611d46565b82525050565b60006080820190508181036000830152611d7b8187611cbd565b9050611d8a6020830186611cf6565b611d976040830185611d37565b611da46060830184611d52565b95945050505050565b600080600060608486031215611dc657611dc5611bf9565b5b6000611dd486828701611c24565b9350506020611de586828701611c24565b9250506040611df686828701611c24565b9150509250925092565b60008060408385031215611e1757611e16611bf9565b5b6000611e2585828601611c24565b9250506020611e3685828601611c24565b9150509250929050565b600082825260208201905092915050565b6000611e5c82611c66565b611e668185611e40565b9350611e76818560208601611c82565b611e7f81611cac565b840191505092915050565b611e9381611c03565b82525050565b611ea281611d25565b82525050565b611eb181611d46565b82525050565b6000610120830160008301518482036000860152611ed58282611e51565b9150506020830151611eea6020860182611e8a565b506040830151611efd6040860182611e8a565b506060830151611f106060860182611e99565b506080830151611f236080860182611e8a565b5060a0830151611f3660a0860182611e8a565b5060c0830151611f4960c0860182611ea8565b5060e0830151611f5c60e0860182611ea8565b50610100830151611f71610100860182611ea8565b508091505092915050565b60006020820190508181036000830152611f968184611eb7565b905092915050565b600080fd5b600080fd5b7f4e487b7100000000000000000000000000000000000000000000000000000000600052604160045260246000fd5b611fe082611cac565b810181811067ffffffffffffffff82111715611fff57611ffe611fa8565b5b80604052505050565b6000612012611bef565b905061201e8282611fd7565b919050565b600067ffffffffffffffff82111561203e5761203d611fa8565b5b61204782611cac565b9050602081019050919050565b82818337600083830152505050565b600061207661207184612023565b612008565b90508281526020810184848401111561209257612091611fa3565b5b61209d848285612054565b509392505050565b600082601f8301126120ba576120b9611f9e565b5b81356120ca848260208601612063565b91505092915050565b600080604083850312156120ea576120e9611bf9565b5b60006120f885828601611c24565b925050602083013567ffffffffffffffff81111561211957612118611bfe565b5b612125858286016120a5565b9150509250929050565b60006020820190506121446000830184611cf6565b92915050565b600060208201905061215f6000830184611d37565b92915050565b600061217082611d05565b9050919050565b61218081612165565b811461218b57600080fd5b50565b60008135905061219d81612177565b92915050565b6000806000606084860312156121bc576121bb611bf9565b5b60006121ca86828701611c24565b93505060206121db86828701611c24565b92505060406121ec8682870161218e565b9150509250925092565b600081519050919050565b600082825260208201905092915050565b6000819050602082019050919050565b61222b81612165565b82525050565b600061223d8383612222565b60208301905092915050565b6000602082019050919050565b6000612261826121f6565b61226b8185612201565b935061227683612212565b8060005b838110156122a757815161228e8882612231565b975061229983612249565b92505060018101905061227a565b5085935050505092915050565b600060608301600083015184820360008601526122d18282611e51565b91505060208301516122e66020860182611e8a565b50604083015184820360408601526122fe8282612256565b9150508091505092915050565b6000602082019050818103600083015261232581846122b4565b905092915050565b61233681612165565b82525050565b6000602082019050612351600083018461232d565b92915050565b60006020828403121561236d5761236c611bf9565b5b600082013567ffffffffffffffff81111561238b5761238a611bfe565b5b612397848285016120a5565b91505092915050565b7f4e487b7100000000000000000000000000000000000000000000000000000000600052602260045260246000fd5b600060028204905060018216806123e757607f821691505b6020821081036123fa576123f96123a0565b5b50919050565b7f6e6f7420612076616c6964206576656e74496400000000000000000000000000600082015250565b6000612436601383611c71565b915061244182612400565b602082019050919050565b6000602082019050818103600083015261246581612429565b9050919050565b7f6e6f7420612076616c6964206177617264496400000000000000000000000000600082015250565b60006124a2601383611c71565b91506124ad8261246c565b602082019050919050565b600060208201905081810360008301526124d181612495565b9050919050565b7f4e487b7100000000000000000000000000000000000000000000000000000000600052603260045260246000fd5b7f6e6f7420612076616c6964207465616d49640000000000000000000000000000600082015250565b600061253d601283611c71565b915061254882612507565b602082019050919050565b6000602082019050818103600083015261256c81612530565b9050919050565b7f796f7520617265206e6f74207465616d206c6561646572000000000000000000600082015250565b60006125a9601783611c71565b91506125b482612573565b602082019050919050565b600060208201905081810360008301526125d88161259c565b9050919050565b7f6177617264206e6f742064657369676e61746564207965740000000000000000600082015250565b6000612615601883611c71565b9150612620826125df565b602082019050919050565b6000602082019050818103600083015261264481612608565b9050919050565b7f796f752077657265206e6f742063686f73656e20627920746865206f7267616e60008201527f697a657200000000000000000000000000000000000000000000000000000000602082015250565b60006126a7602483611c71565b91506126b28261264b565b604082019050919050565b600060208201905081810360008301526126d68161269a565b9050919050565b7f796f752077657265206e6f742063686f73656e206279207468652073706f6e7360008201527f6f72000000000000000000000000000000000000000000000000000000000000602082015250565b6000612739602283611c71565b9150612744826126dd565b604082019050919050565b600060208201905081810360008301526127688161272c565b9050919050565b7f61776172642077617320616c72656164792072656c6561736564000000000000600082015250565b60006127a5601a83611c71565b91506127b08261276f565b602082019050919050565b600060208201905081810360008301526127d481612798565b9050919050565b7f4e487b7100000000000000000000000000000000000000000000000000000000600052601260045260246000fd5b7f4e487b7100000000000000000000000000000000000000000000000000000000600052601160045260246000fd5b600061284482611c03565b915061284f83611c03565b92508261285f5761285e6127db565b5b828204905092915050565b600061287582611c03565b91507fffffffffffffffffffffffffffffffffffffffffffffffffffffffffffffffff82036128a7576128a661280a565b5b600182019050919050565b60008190508160005260206000209050919050565b60006020601f8301049050919050565b600082821b905092915050565b6000600883026129147fffffffffffffffffffffffffffffffffffffffffffffffffffffffffffffffff826128d7565b61291e86836128d7565b95508019841693508086168417925050509392505050565b6000819050919050565b600061295b61295661295184611c03565b612936565b611c03565b9050919050565b6000819050919050565b61297583612940565b61298961298182612962565b8484546128e4565b825550505050565b600090565b61299e612991565b6129a981848461296c565b505050565b5b818110156129cd576129c2600082612996565b6001810190506129af565b5050565b601f821115612a12576129e3816128b2565b6129ec846128c7565b810160208510156129fb578190505b612a0f612a07856128c7565b8301826129ae565b50505b505050565b600082821c905092915050565b6000612a3560001984600802612a17565b1980831691505092915050565b6000612a4e8383612a24565b9150826002028217905092915050565b612a6782611c66565b67ffffffffffffffff811115612a8057612a7f611fa8565b5b612a8a82546123cf565b612a958282856129d1565b600060209050601f831160018114612ac85760008415612ab6578287015190505b612ac08582612a42565b865550612b28565b601f198416612ad6866128b2565b60005b82811015612afe57848901518255600182019150602085019450602081019050612ad9565b86831015612b1b5784890151612b17601f891682612a24565b8355505b6001600288020188555050505b505050505050565b7f6e6f74206f7267616e697a6572206f722073706f6e736f720000000000000000600082015250565b6000612b66601883611c71565b9150612b7182612b30565b602082019050919050565b60006020820190508181036000830152612b9581612b59565b9050919050565b6000612ba782611c03565b9150612bb283611c03565b9250828201905080821115612bca57612bc961280a565b5b92915050565b600081549050612bdf816123cf565b9050919050565b818103612bf4575050612ccc565b612bfd82612bd0565b67ffffffffffffffff811115612c1657612c15611fa8565b5b612c2082546123cf565b612c2b8282856129d1565b6000601f831160018114612c5a5760008415612c48578287015490505b612c528582612a42565b865550612cc5565b601f198416612c68876128b2565b9650612c73866128b2565b60005b82811015612c9b57848901548255600182019150600185019450602081019050612c76565b86831015612cb85784890154612cb4601f891682612a24565b8355505b6001600288020188555050505b5050505050505b56fea26469706673582212206e3bd29553d11f762da930ff58aa126dba01b859ddd347e819b5201e376c662c64736f6c63430008120033",
  "linkReferences": {},
  "deployedLinkReferences": {}
}