{
  "_format": "hh-sol-artifact-1",
  "contractName": "HackSpace",
  "sourceName": "contracts/HackSpace.sol",
  "abi": [
    {
      "inputs": [],
      "stateMutability": "nonpayable",
      "type": "constructor"
    },
    {
      "inputs": [
        {
          "internalType": "uint256",
          "name": "eventId",
          "type": "uint256"
        },
        {
          "internalType": "string",
          "name": "name",
          "type": "string"
        }
      ],
      "name": "addAward",
      "outputs": [],
      "stateMutability": "payable",
      "type": "function"
    },
    {
      "inputs": [
        {
          "internalType": "string",
          "name": "name",
          "type": "string"
        }
      ],
      "name": "addEvent",
      "outputs": [],
      "stateMutability": "nonpayable",
      "type": "function"
    },
    {
      "inputs": [
        {
          "internalType": "uint256",
          "name": "eventId",
          "type": "uint256"
        },
        {
          "internalType": "uint256",
          "name": "teamId",
          "type": "uint256"
        },
        {
          "internalType": "address payable",
          "name": "member",
          "type": "address"
        }
      ],
      "name": "addMember",
      "outputs": [],
      "stateMutability": "nonpayable",
      "type": "function"
    },
    {
      "inputs": [
        {
          "internalType": "uint256",
          "name": "eventId",
          "type": "uint256"
        },
        {
          "internalType": "uint256",
          "name": "awardId",
          "type": "uint256"
        },
        {
          "internalType": "uint256",
          "name": "teamId",
          "type": "uint256"
        }
      ],
      "name": "claimAward",
      "outputs": [],
      "stateMutability": "nonpayable",
      "type": "function"
    },
    {
      "inputs": [
        {
          "internalType": "uint256",
          "name": "eventId",
          "type": "uint256"
        },
        {
          "internalType": "uint256",
          "name": "awardId",
          "type": "uint256"
        },
        {
          "internalType": "uint256",
          "name": "teamId",
          "type": "uint256"
        }
      ],
      "name": "designateAward",
      "outputs": [],
      "stateMutability": "nonpayable",
      "type": "function"
    },
    {
      "inputs": [
        {
          "internalType": "uint256",
          "name": "",
          "type": "uint256"
        }
      ],
      "name": "events",
      "outputs": [
        {
          "internalType": "string",
          "name": "name",
          "type": "string"
        },
        {
          "internalType": "uint256",
          "name": "id",
          "type": "uint256"
        },
        {
          "internalType": "address",
          "name": "organizer",
          "type": "address"
        },
        {
          "internalType": "bool",
          "name": "allowSignup",
          "type": "bool"
        }
      ],
      "stateMutability": "view",
      "type": "function"
    },
    {
      "inputs": [
        {
          "internalType": "uint256",
          "name": "eventId",
          "type": "uint256"
        },
        {
          "internalType": "string",
          "name": "name",
          "type": "string"
        }
      ],
      "name": "joinEvent",
      "outputs": [],
      "stateMutability": "nonpayable",
      "type": "function"
    },
    {
      "inputs": [],
      "name": "numEvents",
      "outputs": [
        {
          "internalType": "uint256",
          "name": "",
          "type": "uint256"
        }
      ],
      "stateMutability": "view",
      "type": "function"
    },
    {
      "inputs": [],
      "name": "owner",
      "outputs": [
        {
          "internalType": "address",
          "name": "",
          "type": "address"
        }
      ],
      "stateMutability": "view",
      "type": "function"
    },
    {
      "inputs": [
        {
          "internalType": "uint256",
          "name": "eventId",
          "type": "uint256"
        },
        {
          "internalType": "uint256",
          "name": "awardId",
          "type": "uint256"
        }
      ],
      "name": "viewAward",
      "outputs": [
        {
          "components": [
            {
              "internalType": "string",
              "name": "name",
              "type": "string"
            },
            {
              "internalType": "uint256",
              "name": "id",
              "type": "uint256"
            },
            {
              "internalType": "uint256",
              "name": "prize",
              "type": "uint256"
            },
            {
              "internalType": "address",
              "name": "sponsor",
              "type": "address"
            },
            {
              "internalType": "uint256",
              "name": "sponsorDesignation",
              "type": "uint256"
            },
            {
              "internalType": "uint256",
              "name": "organizerDesignation",
              "type": "uint256"
            },
            {
              "internalType": "bool",
              "name": "hasSponsorDesignated",
              "type": "bool"
            },
            {
              "internalType": "bool",
              "name": "hasOrganizerDesignated",
              "type": "bool"
            },
            {
              "internalType": "bool",
              "name": "awarded",
              "type": "bool"
            }
          ],
          "internalType": "struct HackSpace.Award",
          "name": "",
          "type": "tuple"
        }
      ],
      "stateMutability": "view",
      "type": "function"
    },
    {
      "inputs": [
        {
          "internalType": "uint256",
          "name": "eventId",
          "type": "uint256"
        },
        {
          "internalType": "uint256",
          "name": "teamId",
          "type": "uint256"
        },
        {
          "internalType": "uint256",
          "name": "member_index",
          "type": "uint256"
        }
      ],
      "name": "viewMember",
      "outputs": [
        {
          "internalType": "address payable",
          "name": "",
          "type": "address"
        }
      ],
      "stateMutability": "view",
      "type": "function"
    },
    {
      "inputs": [
        {
          "internalType": "uint256",
          "name": "eventId",
          "type": "uint256"
        },
        {
          "internalType": "uint256",
          "name": "teamId",
          "type": "uint256"
        }
      ],
      "name": "viewTeam",
      "outputs": [
        {
          "components": [
            {
              "internalType": "string",
              "name": "name",
              "type": "string"
            },
            {
              "internalType": "uint256",
              "name": "id",
              "type": "uint256"
            },
            {
              "internalType": "address payable[]",
              "name": "members",
              "type": "address[]"
            }
          ],
          "internalType": "struct HackSpace.Team",
          "name": "",
          "type": "tuple"
        }
      ],
      "stateMutability": "view",
      "type": "function"
    }
  ],
  "bytecode": "0x608060405234801561001057600080fd5b50336000806101000a81548173ffffffffffffffffffffffffffffffffffffffff021916908373ffffffffffffffffffffffffffffffffffffffff1602179055506000600281905550612b7f806100686000396000f3fe6080604052600436106100a75760003560e01c806396de7cf31161006457806396de7cf3146101c4578063a3544c5b146101ed578063b8da82081461022a578063df18a00e14610267578063eda039ac14610290578063feaa3394146102b9576100a7565b80630b791430146100ac5780631e5832ed146100ec57806322197517146101155780632523d95e1461015257806334cf562b1461016e5780638da5cb5b14610199575b600080fd5b3480156100b857600080fd5b506100d360048036038101906100ce9190611ab4565b6102e2565b6040516100e39493929190611bdc565b60405180910390f35b3480156100f857600080fd5b50610113600480360381019061010e9190611c28565b6103c7565b005b34801561012157600080fd5b5061013c60048036038101906101379190611c7b565b6107e9565b6040516101499190611df7565b60405180910390f35b61016c60048036038101906101679190611f4e565b61099c565b005b34801561017a57600080fd5b50610183610b91565b6040516101909190611faa565b60405180910390f35b3480156101a557600080fd5b506101ae610b97565b6040516101bb9190611fc5565b60405180910390f35b3480156101d057600080fd5b506101eb60048036038101906101e6919061201e565b610bbb565b005b3480156101f957600080fd5b50610214600480360381019061020f9190611c7b565b610da2565b6040516102219190612186565b60405180910390f35b34801561023657600080fd5b50610251600480360381019061024c9190611c28565b610f1d565b60405161025e91906121b7565b60405180910390f35b34801561027357600080fd5b5061028e60048036038101906102899190611f4e565b610f9e565b005b34801561029c57600080fd5b506102b760048036038101906102b29190611c28565b61111c565b005b3480156102c557600080fd5b506102e060048036038101906102db91906121d2565b6113cd565b005b60016020528060005260406000206000915090508060000180546103059061224a565b80601f01602080910402602001604051908101604052809291908181526020018280546103319061224a565b801561037e5780601f106103535761010080835404028352916020019161037e565b820191906000526020600020905b81548152906001019060200180831161036157829003601f168201915b5050505050908060010154908060030160009054906101000a900473ffffffffffffffffffffffffffffffffffffffff16908060050160009054906101000a900460ff16905084565b600254831061040b576040517f08c379a0000000000000000000000000000000000000000000000000000000008152600401610402906122c7565b60405180910390fd5b60006001600085815260200190815260200160002090508060040180549050831061046b576040517f08c379a000000000000000000000000000000000000000000000000000000000815260040161046290612333565b60405180910390fd5b600081600401848154811061048357610482612353565b5b90600052602060002090600702019050816002018054905083106104dc576040517f08c379a00000000000000000000000000000000000000000000000000000000081526004016104d3906123ce565b60405180910390fd5b60008260020184815481106104f4576104f3612353565b5b906000526020600020906003020190508060020160008154811061051b5761051a612353565b5b9060005260206000200160009054906101000a900473ffffffffffffffffffffffffffffffffffffffff1673ffffffffffffffffffffffffffffffffffffffff163373ffffffffffffffffffffffffffffffffffffffff16146105b3576040517f08c379a00000000000000000000000000000000000000000000000000000000081526004016105aa9061243a565b60405180910390fd5b8160060160019054906101000a900460ff1680156105df57508160060160019054906101000a900460ff165b61061e576040517f08c379a0000000000000000000000000000000000000000000000000000000008152600401610615906124a6565b60405180910390fd5b83826005015414610664576040517f08c379a000000000000000000000000000000000000000000000000000000000815260040161065b90612538565b60405180910390fd5b838260040154146106aa576040517f08c379a00000000000000000000000000000000000000000000000000000000081526004016106a1906125ca565b60405180910390fd5b8160060160029054906101000a900460ff16156106fc576040517f08c379a00000000000000000000000000000000000000000000000000000000081526004016106f390612636565b60405180910390fd5b60018260060160026101000a81548160ff02191690831515021790555060008160020180549050905060008360020154905060005b828110156107de5783600201818154811061074f5761074e612353565b5b9060005260206000200160009054906101000a900473ffffffffffffffffffffffffffffffffffffffff1673ffffffffffffffffffffffffffffffffffffffff166108fc848461079f91906126b4565b9081150290604051600060405180830381858888f193505050501580156107ca573d6000803e3d6000fd5b5080806107d6906126e5565b915050610731565b505050505050505050565b6107f161158d565b60016000848152602001908152602001600020600401828154811061081957610818612353565b5b9060005260206000209060070201604051806101200160405290816000820180546108439061224a565b80601f016020809104026020016040519081016040528092919081815260200182805461086f9061224a565b80156108bc5780601f10610891576101008083540402835291602001916108bc565b820191906000526020600020905b81548152906001019060200180831161089f57829003601f168201915b5050505050815260200160018201548152602001600282015481526020016003820160009054906101000a900473ffffffffffffffffffffffffffffffffffffffff1673ffffffffffffffffffffffffffffffffffffffff1673ffffffffffffffffffffffffffffffffffffffff16815260200160048201548152602001600582015481526020016006820160009054906101000a900460ff161515151581526020016006820160019054906101000a900460ff161515151581526020016006820160029054906101000a900460ff161515151581525050905092915050565b60025482106109e0576040517f08c379a00000000000000000000000000000000000000000000000000000000081526004016109d7906122c7565b60405180910390fd5b60006001600084815260200190815260200160002090506000816004018054905090506000339050600034905060006040518061012001604052808781526020018581526020018381526020018473ffffffffffffffffffffffffffffffffffffffff1681526020016000815260200160008152602001600015158152602001600015158152602001600015158152509050846004018190806001815401808255809150506001900390600052602060002090600702016000909190919091506000820151816000019081610ab591906128d9565b50602082015181600101556040820151816002015560608201518160030160006101000a81548173ffffffffffffffffffffffffffffffffffffffff021916908373ffffffffffffffffffffffffffffffffffffffff1602179055506080820151816004015560a0820151816005015560c08201518160060160006101000a81548160ff02191690831515021790555060e08201518160060160016101000a81548160ff0219169083151502179055506101008201518160060160026101000a81548160ff021916908315150217905550505050505050505050565b60025481565b60008054906101000a900473ffffffffffffffffffffffffffffffffffffffff1681565b6002548310610bff576040517f08c379a0000000000000000000000000000000000000000000000000000000008152600401610bf6906122c7565b60405180910390fd5b600060016000858152602001908152602001600020905080600201805490508310610c5f576040517f08c379a0000000000000000000000000000000000000000000000000000000008152600401610c56906123ce565b60405180910390fd5b6000816002018481548110610c7757610c76612353565b5b9060005260206000209060030201905080600201600081548110610c9e57610c9d612353565b5b9060005260206000200160009054906101000a900473ffffffffffffffffffffffffffffffffffffffff1673ffffffffffffffffffffffffffffffffffffffff163373ffffffffffffffffffffffffffffffffffffffff1614610d36576040517f08c379a0000000000000000000000000000000000000000000000000000000008152600401610d2d9061243a565b60405180910390fd5b80600201839080600181540180825580915050600190039060005260206000200160009091909190916101000a81548173ffffffffffffffffffffffffffffffffffffffff021916908373ffffffffffffffffffffffffffffffffffffffff1602179055505050505050565b610daa6115f5565b600160008481526020019081526020016000206002018281548110610dd257610dd1612353565b5b9060005260206000209060030201604051806060016040529081600082018054610dfb9061224a565b80601f0160208091040260200160405190810160405280929190818152602001828054610e279061224a565b8015610e745780601f10610e4957610100808354040283529160200191610e74565b820191906000526020600020905b815481529060010190602001808311610e5757829003601f168201915b505050505081526020016001820154815260200160028201805480602002602001604051908101604052809291908181526020018280548015610f0c57602002820191906000526020600020905b8160009054906101000a900473ffffffffffffffffffffffffffffffffffffffff1673ffffffffffffffffffffffffffffffffffffffff1681526020019060010190808311610ec2575b505050505081525050905092915050565b6000600160008581526020019081526020016000206002018381548110610f4757610f46612353565b5b90600052602060002090600302016002018281548110610f6a57610f69612353565b5b9060005260206000200160009054906101000a900473ffffffffffffffffffffffffffffffffffffffff1690509392505050565b6002548210610fe2576040517f08c379a0000000000000000000000000000000000000000000000000000000008152600401610fd9906122c7565b60405180910390fd5b600060016000848152602001908152602001600020905060008160020180549050905061100d6115f5565b8381600001819052508481602001818152505082600201819080600181540180825580915050600190039060005260206000209060030201600090919091909150600082015181600001908161106391906128d9565b5060208201518160010155604082015181600201908051906020019061108a929190611616565b5050508260020182815481106110a3576110a2612353565b5b9060005260206000209060030201600201339080600181540180825580915050600190039060005260206000200160009091909190916101000a81548173ffffffffffffffffffffffffffffffffffffffff021916908373ffffffffffffffffffffffffffffffffffffffff1602179055505050505050565b6002548310611160576040517f08c379a0000000000000000000000000000000000000000000000000000000008152600401611157906122c7565b60405180910390fd5b6000600160008581526020019081526020016000209050806004018054905083106111c0576040517f08c379a00000000000000000000000000000000000000000000000000000000081526004016111b790612333565b60405180910390fd5b60008160040184815481106111d8576111d7612353565b5b9060005260206000209060070201905081600201805490508310611231576040517f08c379a0000000000000000000000000000000000000000000000000000000008152600401611228906123ce565b60405180910390fd5b8160030160009054906101000a900473ffffffffffffffffffffffffffffffffffffffff1673ffffffffffffffffffffffffffffffffffffffff163373ffffffffffffffffffffffffffffffffffffffff1614806112de57508060030160009054906101000a900473ffffffffffffffffffffffffffffffffffffffff1673ffffffffffffffffffffffffffffffffffffffff163373ffffffffffffffffffffffffffffffffffffffff16145b61131d576040517f08c379a0000000000000000000000000000000000000000000000000000000008152600401611314906129f7565b60405180910390fd5b8160030160009054906101000a900473ffffffffffffffffffffffffffffffffffffffff1673ffffffffffffffffffffffffffffffffffffffff163373ffffffffffffffffffffffffffffffffffffffff160361139f5782816005018190555060018160060160016101000a81548160ff0219169083151502179055506113c6565b82816004018190555060018160060160006101000a81548160ff0219169083151502179055505b5050505050565b600060016002546113de9190612a17565b9050600033905060006001600084815260200190815260200160002090508381600001908161140d91906128d9565b50828160010181905550818160030160006101000a81548173ffffffffffffffffffffffffffffffffffffffff021916908373ffffffffffffffffffffffffffffffffffffffff16021790555060008160050160006101000a81548160ff02191690831515021790555080600160008581526020019081526020016000206000820181600001908161149f9190612a61565b506001820154816001015560028201816002019080546114c09291906116a0565b506003820160009054906101000a900473ffffffffffffffffffffffffffffffffffffffff168160030160006101000a81548173ffffffffffffffffffffffffffffffffffffffff021916908373ffffffffffffffffffffffffffffffffffffffff160217905550600482018160040190805461153e92919061172e565b506005820160009054906101000a900460ff168160050160006101000a81548160ff02191690831515021790555090505060026000815480929190611582906126e5565b919050555050505050565b604051806101200160405280606081526020016000815260200160008152602001600073ffffffffffffffffffffffffffffffffffffffff16815260200160008152602001600081526020016000151581526020016000151581526020016000151581525090565b60405180606001604052806060815260200160008152602001606081525090565b82805482825590600052602060002090810192821561168f579160200282015b8281111561168e5782518260006101000a81548173ffffffffffffffffffffffffffffffffffffffff021916908373ffffffffffffffffffffffffffffffffffffffff16021790555091602001919060010190611636565b5b50905061169c91906118b1565b5090565b82805482825590600052602060002090600302810192821561171d5760005260206000209160030282015b8281111561171c578282600082018160000190816116e99190612a61565b5060018201548160010155600282018160020190805461170a9291906118ce565b505050916003019190600301906116cb565b5b50905061172a9190611920565b5090565b8280548282559060005260206000209060070281019282156118a05760005260206000209160070282015b8281111561189f578282600082018160000190816117779190612a61565b5060018201548160010155600282015481600201556003820160009054906101000a900473ffffffffffffffffffffffffffffffffffffffff168160030160006101000a81548173ffffffffffffffffffffffffffffffffffffffff021916908373ffffffffffffffffffffffffffffffffffffffff16021790555060048201548160040155600582015481600501556006820160009054906101000a900460ff168160060160006101000a81548160ff0219169083151502179055506006820160019054906101000a900460ff168160060160016101000a81548160ff0219169083151502179055506006820160029054906101000a900460ff168160060160026101000a81548160ff021916908315150217905550505091600701919060070190611759565b5b5090506118ad919061195f565b5090565b5b808211156118ca5760008160009055506001016118b2565b5090565b82805482825590600052602060002090810192821561190f5760005260206000209182015b8281111561190e5782548255916001019190600101906118f3565b5b50905061191c91906118b1565b5090565b5b8082111561195b576000808201600061193a9190611a09565b60018201600090556002820160006119529190611a49565b50600301611921565b5090565b5b80821115611a0557600080820160006119799190611a09565b600182016000905560028201600090556003820160006101000a81549073ffffffffffffffffffffffffffffffffffffffff0219169055600482016000905560058201600090556006820160006101000a81549060ff02191690556006820160016101000a81549060ff02191690556006820160026101000a81549060ff021916905550600701611960565b5090565b508054611a159061224a565b6000825580601f10611a275750611a46565b601f016020900490600052602060002090810190611a4591906118b1565b5b50565b5080546000825590600052602060002090810190611a6791906118b1565b50565b6000604051905090565b600080fd5b600080fd5b6000819050919050565b611a9181611a7e565b8114611a9c57600080fd5b50565b600081359050611aae81611a88565b92915050565b600060208284031215611aca57611ac9611a74565b5b6000611ad884828501611a9f565b91505092915050565b600081519050919050565b600082825260208201905092915050565b60005b83811015611b1b578082015181840152602081019050611b00565b60008484015250505050565b6000601f19601f8301169050919050565b6000611b4382611ae1565b611b4d8185611aec565b9350611b5d818560208601611afd565b611b6681611b27565b840191505092915050565b611b7a81611a7e565b82525050565b600073ffffffffffffffffffffffffffffffffffffffff82169050919050565b6000611bab82611b80565b9050919050565b611bbb81611ba0565b82525050565b60008115159050919050565b611bd681611bc1565b82525050565b60006080820190508181036000830152611bf68187611b38565b9050611c056020830186611b71565b611c126040830185611bb2565b611c1f6060830184611bcd565b95945050505050565b600080600060608486031215611c4157611c40611a74565b5b6000611c4f86828701611a9f565b9350506020611c6086828701611a9f565b9250506040611c7186828701611a9f565b9150509250925092565b60008060408385031215611c9257611c91611a74565b5b6000611ca085828601611a9f565b9250506020611cb185828601611a9f565b9150509250929050565b600082825260208201905092915050565b6000611cd782611ae1565b611ce18185611cbb565b9350611cf1818560208601611afd565b611cfa81611b27565b840191505092915050565b611d0e81611a7e565b82525050565b611d1d81611ba0565b82525050565b611d2c81611bc1565b82525050565b6000610120830160008301518482036000860152611d508282611ccc565b9150506020830151611d656020860182611d05565b506040830151611d786040860182611d05565b506060830151611d8b6060860182611d14565b506080830151611d9e6080860182611d05565b5060a0830151611db160a0860182611d05565b5060c0830151611dc460c0860182611d23565b5060e0830151611dd760e0860182611d23565b50610100830151611dec610100860182611d23565b508091505092915050565b60006020820190508181036000830152611e118184611d32565b905092915050565b600080fd5b600080fd5b7f4e487b7100000000000000000000000000000000000000000000000000000000600052604160045260246000fd5b611e5b82611b27565b810181811067ffffffffffffffff82111715611e7a57611e79611e23565b5b80604052505050565b6000611e8d611a6a565b9050611e998282611e52565b919050565b600067ffffffffffffffff821115611eb957611eb8611e23565b5b611ec282611b27565b9050602081019050919050565b82818337600083830152505050565b6000611ef1611eec84611e9e565b611e83565b905082815260208101848484011115611f0d57611f0c611e1e565b5b611f18848285611ecf565b509392505050565b600082601f830112611f3557611f34611e19565b5b8135611f45848260208601611ede565b91505092915050565b60008060408385031215611f6557611f64611a74565b5b6000611f7385828601611a9f565b925050602083013567ffffffffffffffff811115611f9457611f93611a79565b5b611fa085828601611f20565b9150509250929050565b6000602082019050611fbf6000830184611b71565b92915050565b6000602082019050611fda6000830184611bb2565b92915050565b6000611feb82611b80565b9050919050565b611ffb81611fe0565b811461200657600080fd5b50565b60008135905061201881611ff2565b92915050565b60008060006060848603121561203757612036611a74565b5b600061204586828701611a9f565b935050602061205686828701611a9f565b925050604061206786828701612009565b9150509250925092565b600081519050919050565b600082825260208201905092915050565b6000819050602082019050919050565b6120a681611fe0565b82525050565b60006120b8838361209d565b60208301905092915050565b6000602082019050919050565b60006120dc82612071565b6120e6818561207c565b93506120f18361208d565b8060005b8381101561212257815161210988826120ac565b9750612114836120c4565b9250506001810190506120f5565b5085935050505092915050565b6000606083016000830151848203600086015261214c8282611ccc565b91505060208301516121616020860182611d05565b506040830151848203604086015261217982826120d1565b9150508091505092915050565b600060208201905081810360008301526121a0818461212f565b905092915050565b6121b181611fe0565b82525050565b60006020820190506121cc60008301846121a8565b92915050565b6000602082840312156121e8576121e7611a74565b5b600082013567ffffffffffffffff81111561220657612205611a79565b5b61221284828501611f20565b91505092915050565b7f4e487b7100000000000000000000000000000000000000000000000000000000600052602260045260246000fd5b6000600282049050600182168061226257607f821691505b6020821081036122755761227461221b565b5b50919050565b7f6e6f7420612076616c6964206576656e74496400000000000000000000000000600082015250565b60006122b1601383611aec565b91506122bc8261227b565b602082019050919050565b600060208201905081810360008301526122e0816122a4565b9050919050565b7f6e6f7420612076616c6964206177617264496400000000000000000000000000600082015250565b600061231d601383611aec565b9150612328826122e7565b602082019050919050565b6000602082019050818103600083015261234c81612310565b9050919050565b7f4e487b7100000000000000000000000000000000000000000000000000000000600052603260045260246000fd5b7f6e6f7420612076616c6964207465616d49640000000000000000000000000000600082015250565b60006123b8601283611aec565b91506123c382612382565b602082019050919050565b600060208201905081810360008301526123e7816123ab565b9050919050565b7f796f7520617265206e6f74207465616d206c6561646572000000000000000000600082015250565b6000612424601783611aec565b915061242f826123ee565b602082019050919050565b6000602082019050818103600083015261245381612417565b9050919050565b7f6177617264206e6f742064657369676e61746564207965740000000000000000600082015250565b6000612490601883611aec565b915061249b8261245a565b602082019050919050565b600060208201905081810360008301526124bf81612483565b9050919050565b7f796f752077657265206e6f742063686f73656e20627920746865206f7267616e60008201527f697a657200000000000000000000000000000000000000000000000000000000602082015250565b6000612522602483611aec565b915061252d826124c6565b604082019050919050565b6000602082019050818103600083015261255181612515565b9050919050565b7f796f752077657265206e6f742063686f73656e206279207468652073706f6e7360008201527f6f72000000000000000000000000000000000000000000000000000000000000602082015250565b60006125b4602283611aec565b91506125bf82612558565b604082019050919050565b600060208201905081810360008301526125e3816125a7565b9050919050565b7f61776172642077617320616c72656164792072656c6561736564000000000000600082015250565b6000612620601a83611aec565b915061262b826125ea565b602082019050919050565b6000602082019050818103600083015261264f81612613565b9050919050565b7f4e487b7100000000000000000000000000000000000000000000000000000000600052601260045260246000fd5b7f4e487b7100000000000000000000000000000000000000000000000000000000600052601160045260246000fd5b60006126bf82611a7e565b91506126ca83611a7e565b9250826126da576126d9612656565b5b828204905092915050565b60006126f082611a7e565b91507fffffffffffffffffffffffffffffffffffffffffffffffffffffffffffffffff820361272257612721612685565b5b600182019050919050565b60008190508160005260206000209050919050565b60006020601f8301049050919050565b600082821b905092915050565b60006008830261278f7fffffffffffffffffffffffffffffffffffffffffffffffffffffffffffffffff82612752565b6127998683612752565b95508019841693508086168417925050509392505050565b6000819050919050565b60006127d66127d16127cc84611a7e565b6127b1565b611a7e565b9050919050565b6000819050919050565b6127f0836127bb565b6128046127fc826127dd565b84845461275f565b825550505050565b600090565b61281961280c565b6128248184846127e7565b505050565b5b818110156128485761283d600082612811565b60018101905061282a565b5050565b601f82111561288d5761285e8161272d565b61286784612742565b81016020851015612876578190505b61288a61288285612742565b830182612829565b50505b505050565b600082821c905092915050565b60006128b060001984600802612892565b1980831691505092915050565b60006128c9838361289f565b9150826002028217905092915050565b6128e282611ae1565b67ffffffffffffffff8111156128fb576128fa611e23565b5b612905825461224a565b61291082828561284c565b600060209050601f8311600181146129435760008415612931578287015190505b61293b85826128bd565b8655506129a3565b601f1984166129518661272d565b60005b8281101561297957848901518255600182019150602085019450602081019050612954565b868310156129965784890151612992601f89168261289f565b8355505b6001600288020188555050505b505050505050565b7f6e6f74206f7267616e697a6572206f722073706f6e736f720000000000000000600082015250565b60006129e1601883611aec565b91506129ec826129ab565b602082019050919050565b60006020820190508181036000830152612a10816129d4565b9050919050565b6000612a2282611a7e565b9150612a2d83611a7e565b9250828201905080821115612a4557612a44612685565b5b92915050565b600081549050612a5a8161224a565b9050919050565b818103612a6f575050612b47565b612a7882612a4b565b67ffffffffffffffff811115612a9157612a90611e23565b5b612a9b825461224a565b612aa682828561284c565b6000601f831160018114612ad55760008415612ac3578287015490505b612acd85826128bd565b865550612b40565b601f198416612ae38761272d565b9650612aee8661272d565b60005b82811015612b1657848901548255600182019150600185019450602081019050612af1565b86831015612b335784890154612b2f601f89168261289f565b8355505b6001600288020188555050505b5050505050505b56fea2646970667358221220589add23e8a5efa433fead4a5ec3f1816327712f237859369049e47fff51da2d64736f6c63430008120033",
  "linkReferences": {},
  "deployedLinkReferences": {}
}