{
  "_format": "hh-sol-artifact-1",
  "contractName": "HackSpace",
  "sourceName": "contracts/HackSpace.sol",
  "abi": [
    {
      "inputs": [],
      "stateMutability": "nonpayable",
      "type": "constructor"
    },
    {
      "anonymous": false,
      "inputs": [
        {
          "indexed": true,
          "internalType": "address",
          "name": "owner",
          "type": "address"
        },
        {
          "indexed": true,
          "internalType": "address",
          "name": "approved",
          "type": "address"
        },
        {
          "indexed": true,
          "internalType": "uint256",
          "name": "tokenId",
          "type": "uint256"
        }
      ],
      "name": "Approval",
      "type": "event"
    },
    {
      "anonymous": false,
      "inputs": [
        {
          "indexed": true,
          "internalType": "address",
          "name": "owner",
          "type": "address"
        },
        {
          "indexed": true,
          "internalType": "address",
          "name": "operator",
          "type": "address"
        },
        {
          "indexed": false,
          "internalType": "bool",
          "name": "approved",
          "type": "bool"
        }
      ],
      "name": "ApprovalForAll",
      "type": "event"
    },
    {
      "anonymous": false,
      "inputs": [
        {
          "indexed": true,
          "internalType": "address",
          "name": "from",
          "type": "address"
        },
        {
          "indexed": true,
          "internalType": "address",
          "name": "to",
          "type": "address"
        },
        {
          "indexed": true,
          "internalType": "uint256",
          "name": "tokenId",
          "type": "uint256"
        }
      ],
      "name": "Transfer",
      "type": "event"
    },
    {
      "inputs": [
        {
          "internalType": "uint256",
          "name": "eventId",
          "type": "uint256"
        },
        {
          "internalType": "string",
          "name": "name",
          "type": "string"
        },
        {
          "internalType": "string",
          "name": "ipfs",
          "type": "string"
        }
      ],
      "name": "addAward",
      "outputs": [],
      "stateMutability": "payable",
      "type": "function"
    },
    {
      "inputs": [
        {
          "internalType": "string",
          "name": "name",
          "type": "string"
        }
      ],
      "name": "addEvent",
      "outputs": [],
      "stateMutability": "nonpayable",
      "type": "function"
    },
    {
      "inputs": [
        {
          "internalType": "uint256",
          "name": "eventId",
          "type": "uint256"
        },
        {
          "internalType": "uint256",
          "name": "teamId",
          "type": "uint256"
        },
        {
          "internalType": "address payable",
          "name": "member",
          "type": "address"
        }
      ],
      "name": "addMember",
      "outputs": [],
      "stateMutability": "nonpayable",
      "type": "function"
    },
    {
      "inputs": [
        {
          "internalType": "address",
          "name": "to",
          "type": "address"
        },
        {
          "internalType": "uint256",
          "name": "tokenId",
          "type": "uint256"
        }
      ],
      "name": "approve",
      "outputs": [],
      "stateMutability": "nonpayable",
      "type": "function"
    },
    {
      "inputs": [
        {
          "internalType": "address",
          "name": "owner",
          "type": "address"
        }
      ],
      "name": "balanceOf",
      "outputs": [
        {
          "internalType": "uint256",
          "name": "",
          "type": "uint256"
        }
      ],
      "stateMutability": "view",
      "type": "function"
    },
    {
      "inputs": [
        {
          "internalType": "uint256",
          "name": "eventId",
          "type": "uint256"
        },
        {
          "internalType": "uint256",
          "name": "awardId",
          "type": "uint256"
        },
        {
          "internalType": "uint256",
          "name": "teamId",
          "type": "uint256"
        }
      ],
      "name": "claimAward",
      "outputs": [],
      "stateMutability": "nonpayable",
      "type": "function"
    },
    {
      "inputs": [
        {
          "internalType": "uint256",
          "name": "eventId",
          "type": "uint256"
        },
        {
          "internalType": "uint256",
          "name": "awardId",
          "type": "uint256"
        },
        {
          "internalType": "uint256",
          "name": "teamId",
          "type": "uint256"
        }
      ],
      "name": "designateAward",
      "outputs": [],
      "stateMutability": "nonpayable",
      "type": "function"
    },
    {
      "inputs": [
        {
          "internalType": "uint256",
          "name": "",
          "type": "uint256"
        }
      ],
      "name": "events",
      "outputs": [
        {
          "internalType": "string",
          "name": "name",
          "type": "string"
        },
        {
          "internalType": "uint256",
          "name": "id",
          "type": "uint256"
        },
        {
          "internalType": "address",
          "name": "organizer",
          "type": "address"
        },
        {
          "internalType": "bool",
          "name": "allowSignup",
          "type": "bool"
        }
      ],
      "stateMutability": "view",
      "type": "function"
    },
    {
      "inputs": [
        {
          "internalType": "uint256",
          "name": "tokenId",
          "type": "uint256"
        }
      ],
      "name": "getApproved",
      "outputs": [
        {
          "internalType": "address",
          "name": "",
          "type": "address"
        }
      ],
      "stateMutability": "view",
      "type": "function"
    },
    {
      "inputs": [
        {
          "internalType": "address",
          "name": "owner",
          "type": "address"
        },
        {
          "internalType": "address",
          "name": "operator",
          "type": "address"
        }
      ],
      "name": "isApprovedForAll",
      "outputs": [
        {
          "internalType": "bool",
          "name": "",
          "type": "bool"
        }
      ],
      "stateMutability": "view",
      "type": "function"
    },
    {
      "inputs": [
        {
          "internalType": "uint256",
          "name": "eventId",
          "type": "uint256"
        },
        {
          "internalType": "string",
          "name": "name",
          "type": "string"
        }
      ],
      "name": "joinEvent",
      "outputs": [],
      "stateMutability": "nonpayable",
      "type": "function"
    },
    {
      "inputs": [],
      "name": "mintPrice",
      "outputs": [
        {
          "internalType": "uint256",
          "name": "",
          "type": "uint256"
        }
      ],
      "stateMutability": "view",
      "type": "function"
    },
    {
      "inputs": [],
      "name": "name",
      "outputs": [
        {
          "internalType": "string",
          "name": "",
          "type": "string"
        }
      ],
      "stateMutability": "view",
      "type": "function"
    },
    {
      "inputs": [],
      "name": "numEvents",
      "outputs": [
        {
          "internalType": "uint256",
          "name": "",
          "type": "uint256"
        }
      ],
      "stateMutability": "view",
      "type": "function"
    },
    {
      "inputs": [],
      "name": "owner",
      "outputs": [
        {
          "internalType": "address",
          "name": "",
          "type": "address"
        }
      ],
      "stateMutability": "view",
      "type": "function"
    },
    {
      "inputs": [
        {
          "internalType": "uint256",
          "name": "tokenId",
          "type": "uint256"
        }
      ],
      "name": "ownerOf",
      "outputs": [
        {
          "internalType": "address",
          "name": "",
          "type": "address"
        }
      ],
      "stateMutability": "view",
      "type": "function"
    },
    {
      "inputs": [
        {
          "internalType": "address",
          "name": "from",
          "type": "address"
        },
        {
          "internalType": "address",
          "name": "to",
          "type": "address"
        },
        {
          "internalType": "uint256",
          "name": "tokenId",
          "type": "uint256"
        }
      ],
      "name": "safeTransferFrom",
      "outputs": [],
      "stateMutability": "nonpayable",
      "type": "function"
    },
    {
      "inputs": [
        {
          "internalType": "address",
          "name": "from",
          "type": "address"
        },
        {
          "internalType": "address",
          "name": "to",
          "type": "address"
        },
        {
          "internalType": "uint256",
          "name": "tokenId",
          "type": "uint256"
        },
        {
          "internalType": "bytes",
          "name": "data",
          "type": "bytes"
        }
      ],
      "name": "safeTransferFrom",
      "outputs": [],
      "stateMutability": "nonpayable",
      "type": "function"
    },
    {
      "inputs": [
        {
          "internalType": "address",
          "name": "operator",
          "type": "address"
        },
        {
          "internalType": "bool",
          "name": "approved",
          "type": "bool"
        }
      ],
      "name": "setApprovalForAll",
      "outputs": [],
      "stateMutability": "nonpayable",
      "type": "function"
    },
    {
      "inputs": [
        {
          "internalType": "bytes4",
          "name": "interfaceId",
          "type": "bytes4"
        }
      ],
      "name": "supportsInterface",
      "outputs": [
        {
          "internalType": "bool",
          "name": "",
          "type": "bool"
        }
      ],
      "stateMutability": "view",
      "type": "function"
    },
    {
      "inputs": [],
      "name": "symbol",
      "outputs": [
        {
          "internalType": "string",
          "name": "",
          "type": "string"
        }
      ],
      "stateMutability": "view",
      "type": "function"
    },
    {
      "inputs": [
        {
          "internalType": "uint256",
          "name": "tokenId",
          "type": "uint256"
        }
      ],
      "name": "tokenURI",
      "outputs": [
        {
          "internalType": "string",
          "name": "",
          "type": "string"
        }
      ],
      "stateMutability": "view",
      "type": "function"
    },
    {
      "inputs": [],
      "name": "totalMints",
      "outputs": [
        {
          "internalType": "uint256",
          "name": "",
          "type": "uint256"
        }
      ],
      "stateMutability": "view",
      "type": "function"
    },
    {
      "inputs": [
        {
          "internalType": "address",
          "name": "from",
          "type": "address"
        },
        {
          "internalType": "address",
          "name": "to",
          "type": "address"
        },
        {
          "internalType": "uint256",
          "name": "tokenId",
          "type": "uint256"
        }
      ],
      "name": "transferFrom",
      "outputs": [],
      "stateMutability": "nonpayable",
      "type": "function"
    },
    {
      "inputs": [
        {
          "internalType": "uint256",
          "name": "eventId",
          "type": "uint256"
        },
        {
          "internalType": "uint256",
          "name": "awardId",
          "type": "uint256"
        }
      ],
      "name": "viewAward",
      "outputs": [
        {
          "components": [
            {
              "internalType": "string",
              "name": "name",
              "type": "string"
            },
            {
              "internalType": "uint256",
              "name": "id",
              "type": "uint256"
            },
            {
              "internalType": "uint256",
              "name": "prize",
              "type": "uint256"
            },
            {
              "internalType": "address",
              "name": "sponsor",
              "type": "address"
            },
            {
              "internalType": "uint256",
              "name": "sponsorDesignation",
              "type": "uint256"
            },
            {
              "internalType": "uint256",
              "name": "organizerDesignation",
              "type": "uint256"
            },
            {
              "internalType": "bool",
              "name": "hasSponsorDesignated",
              "type": "bool"
            },
            {
              "internalType": "bool",
              "name": "hasOrganizerDesignated",
              "type": "bool"
            },
            {
              "internalType": "bool",
              "name": "awarded",
              "type": "bool"
            },
            {
              "internalType": "string",
              "name": "win_nft",
              "type": "string"
            }
          ],
          "internalType": "struct HackSpace.Award",
          "name": "",
          "type": "tuple"
        }
      ],
      "stateMutability": "view",
      "type": "function"
    },
    {
      "inputs": [
        {
          "internalType": "uint256",
          "name": "eventId",
          "type": "uint256"
        }
      ],
      "name": "viewAwardsNum",
      "outputs": [
        {
          "internalType": "uint256",
          "name": "",
          "type": "uint256"
        }
      ],
      "stateMutability": "view",
      "type": "function"
    },
    {
      "inputs": [
        {
          "internalType": "uint256",
          "name": "eventId",
          "type": "uint256"
        },
        {
          "internalType": "uint256",
          "name": "teamId",
          "type": "uint256"
        },
        {
          "internalType": "uint256",
          "name": "member_index",
          "type": "uint256"
        }
      ],
      "name": "viewMember",
      "outputs": [
        {
          "internalType": "address payable",
          "name": "",
          "type": "address"
        }
      ],
      "stateMutability": "view",
      "type": "function"
    },
    {
      "inputs": [
        {
          "internalType": "uint256",
          "name": "eventId",
          "type": "uint256"
        },
        {
          "internalType": "uint256",
          "name": "teamId",
          "type": "uint256"
        }
      ],
      "name": "viewMembersNum",
      "outputs": [
        {
          "internalType": "uint256",
          "name": "",
          "type": "uint256"
        }
      ],
      "stateMutability": "view",
      "type": "function"
    },
    {
      "inputs": [
        {
          "internalType": "uint256",
          "name": "eventId",
          "type": "uint256"
        },
        {
          "internalType": "uint256",
          "name": "teamId",
          "type": "uint256"
        }
      ],
      "name": "viewTeam",
      "outputs": [
        {
          "components": [
            {
              "internalType": "string",
              "name": "name",
              "type": "string"
            },
            {
              "internalType": "uint256",
              "name": "id",
              "type": "uint256"
            },
            {
              "internalType": "address payable[]",
              "name": "members",
              "type": "address[]"
            }
          ],
          "internalType": "struct HackSpace.Team",
          "name": "",
          "type": "tuple"
        }
      ],
      "stateMutability": "view",
      "type": "function"
    },
    {
      "inputs": [
        {
          "internalType": "uint256",
          "name": "eventId",
          "type": "uint256"
        }
      ],
      "name": "viewTeamsNum",
      "outputs": [
        {
          "internalType": "uint256",
          "name": "",
          "type": "uint256"
        }
      ],
      "stateMutability": "view",
      "type": "function"
    }
  ],
  "bytecode": "0x608060405260006009553480156200001657600080fd5b506040518060400160405280600e81526020017f4861636b5370616365546f6b656e0000000000000000000000000000000000008152506040518060400160405280600381526020017f4853540000000000000000000000000000000000000000000000000000000000815250816000908162000094919062000372565b508060019081620000a6919062000372565b50505033600760006101000a81548173ffffffffffffffffffffffffffffffffffffffff021916908373ffffffffffffffffffffffffffffffffffffffff1602179055506000600b8190555062000459565b600081519050919050565b7f4e487b7100000000000000000000000000000000000000000000000000000000600052604160045260246000fd5b7f4e487b7100000000000000000000000000000000000000000000000000000000600052602260045260246000fd5b600060028204905060018216806200017a57607f821691505b60208210810362000190576200018f62000132565b5b50919050565b60008190508160005260206000209050919050565b60006020601f8301049050919050565b600082821b905092915050565b600060088302620001fa7fffffffffffffffffffffffffffffffffffffffffffffffffffffffffffffffff82620001bb565b620002068683620001bb565b95508019841693508086168417925050509392505050565b6000819050919050565b6000819050919050565b6000620002536200024d62000247846200021e565b62000228565b6200021e565b9050919050565b6000819050919050565b6200026f8362000232565b620002876200027e826200025a565b848454620001c8565b825550505050565b600090565b6200029e6200028f565b620002ab81848462000264565b505050565b5b81811015620002d357620002c760008262000294565b600181019050620002b1565b5050565b601f8211156200032257620002ec8162000196565b620002f784620001ab565b8101602085101562000307578190505b6200031f6200031685620001ab565b830182620002b0565b50505b505050565b600082821c905092915050565b6000620003476000198460080262000327565b1980831691505092915050565b600062000362838362000334565b9150826002028217905092915050565b6200037d82620000f8565b67ffffffffffffffff81111562000399576200039862000103565b5b620003a5825462000161565b620003b2828285620002d7565b600060209050601f831160018114620003ea5760008415620003d5578287015190505b620003e1858262000354565b86555062000451565b601f198416620003fa8662000196565b60005b828110156200042457848901518255600182019150602085019450602081019050620003fd565b8683101562000444578489015162000440601f89168262000334565b8355505b6001600288020188555050505b505050505050565b61545680620004696000396000f3fe6080604052600436106101cd5760003560e01c806381d35e22116100f7578063b5ee43c811610095578063df18a00e11610064578063df18a00e146106ee578063e985e9c514610717578063eda039ac14610754578063feaa33941461077d576101cd565b8063b5ee43c81461060e578063b88d4fde1461064b578063b8da820814610674578063c87b56dd146106b1576101cd565b806396de7cf3116100d157806396de7cf314610542578063a22cb4651461056b578063a30eff4514610594578063a3544c5b146105d1576101cd565b806381d35e22146104af5780638da5cb5b146104ec57806395d89b4114610517576101cd565b8063221975171161016f57806353b625981161013e57806353b62598146103ee5780636352211e1461040a5780636817c76c1461044757806370a0823114610472576101cd565b8063221975171461033457806323b872dd1461037157806334cf562b1461039a57806342842e0e146103c5576101cd565b8063095ea7b3116101ab578063095ea7b3146102775780630b791430146102a05780631e5832ed146102e05780631f21bfbf14610309576101cd565b806301ffc9a7146101d257806306fdde031461020f578063081812fc1461023a575b600080fd5b3480156101de57600080fd5b506101f960048036038101906101f49190613805565b6107a6565b604051610206919061384d565b60405180910390f35b34801561021b57600080fd5b50610224610888565b60405161023191906138f8565b60405180910390f35b34801561024657600080fd5b50610261600480360381019061025c9190613950565b61091a565b60405161026e91906139be565b60405180910390f35b34801561028357600080fd5b5061029e60048036038101906102999190613a05565b610960565b005b3480156102ac57600080fd5b506102c760048036038101906102c29190613950565b610a77565b6040516102d79493929190613a54565b60405180910390f35b3480156102ec57600080fd5b5061030760048036038101906103029190613aa0565b610b5c565b005b34801561031557600080fd5b5061031e61107b565b60405161032b9190613af3565b60405180910390f35b34801561034057600080fd5b5061035b60048036038101906103569190613b0e565b611081565b6040516103689190613ca6565b60405180910390f35b34801561037d57600080fd5b5061039860048036038101906103939190613cc8565b6112c6565b005b3480156103a657600080fd5b506103af611326565b6040516103bc9190613af3565b60405180910390f35b3480156103d157600080fd5b506103ec60048036038101906103e79190613cc8565b61132c565b005b61040860048036038101906104039190613e50565b61134c565b005b34801561041657600080fd5b50610431600480360381019061042c9190613950565b611560565b60405161043e91906139be565b60405180910390f35b34801561045357600080fd5b5061045c6115e6565b6040516104699190613af3565b60405180910390f35b34801561047e57600080fd5b5061049960048036038101906104949190613edb565b6115ec565b6040516104a69190613af3565b60405180910390f35b3480156104bb57600080fd5b506104d660048036038101906104d19190613950565b6116a3565b6040516104e39190613af3565b60405180910390f35b3480156104f857600080fd5b506105016116c6565b60405161050e91906139be565b60405180910390f35b34801561052357600080fd5b5061052c6116ec565b60405161053991906138f8565b60405180910390f35b34801561054e57600080fd5b5061056960048036038101906105649190613f46565b61177e565b005b34801561057757600080fd5b50610592600480360381019061058d9190613fc5565b611966565b005b3480156105a057600080fd5b506105bb60048036038101906105b69190613b0e565b61197c565b6040516105c89190613af3565b60405180910390f35b3480156105dd57600080fd5b506105f860048036038101906105f39190613b0e565b6119c3565b604051610605919061411a565b60405180910390f35b34801561061a57600080fd5b5061063560048036038101906106309190613950565b611b3e565b6040516106429190613af3565b60405180910390f35b34801561065757600080fd5b50610672600480360381019061066d91906141dd565b611b61565b005b34801561068057600080fd5b5061069b60048036038101906106969190613aa0565b611bc3565b6040516106a8919061426f565b60405180910390f35b3480156106bd57600080fd5b506106d860048036038101906106d39190613950565b611c44565b6040516106e591906138f8565b60405180910390f35b3480156106fa57600080fd5b506107156004803603810190610710919061428a565b611c56565b005b34801561072357600080fd5b5061073e600480360381019061073991906142e6565b611dd5565b60405161074b919061384d565b60405180910390f35b34801561076057600080fd5b5061077b60048036038101906107769190613aa0565b611e69565b005b34801561078957600080fd5b506107a4600480360381019061079f9190614326565b61211b565b005b60007f80ac58cd000000000000000000000000000000000000000000000000000000007bffffffffffffffffffffffffffffffffffffffffffffffffffffffff1916827bffffffffffffffffffffffffffffffffffffffffffffffffffffffff1916148061087157507f5b5e139f000000000000000000000000000000000000000000000000000000007bffffffffffffffffffffffffffffffffffffffffffffffffffffffff1916827bffffffffffffffffffffffffffffffffffffffffffffffffffffffff1916145b806108815750610880826122db565b5b9050919050565b6060600080546108979061439e565b80601f01602080910402602001604051908101604052809291908181526020018280546108c39061439e565b80156109105780601f106108e557610100808354040283529160200191610910565b820191906000526020600020905b8154815290600101906020018083116108f357829003601f168201915b5050505050905090565b600061092582612345565b6004600083815260200190815260200160002060009054906101000a900473ffffffffffffffffffffffffffffffffffffffff169050919050565b600061096b82611560565b90508073ffffffffffffffffffffffffffffffffffffffff168373ffffffffffffffffffffffffffffffffffffffff16036109db576040517f08c379a00000000000000000000000000000000000000000000000000000000081526004016109d290614441565b60405180910390fd5b8073ffffffffffffffffffffffffffffffffffffffff166109fa612390565b73ffffffffffffffffffffffffffffffffffffffff161480610a295750610a2881610a23612390565b611dd5565b5b610a68576040517f08c379a0000000000000000000000000000000000000000000000000000000008152600401610a5f906144d3565b60405180910390fd5b610a728383612398565b505050565b600a602052806000526040600020600091509050806000018054610a9a9061439e565b80601f0160208091040260200160405190810160405280929190818152602001828054610ac69061439e565b8015610b135780601f10610ae857610100808354040283529160200191610b13565b820191906000526020600020905b815481529060010190602001808311610af657829003601f168201915b5050505050908060010154908060030160009054906101000a900473ffffffffffffffffffffffffffffffffffffffff16908060050160009054906101000a900460ff16905084565b600b54831115610ba1576040517f08c379a0000000000000000000000000000000000000000000000000000000008152600401610b989061453f565b60405180910390fd5b6000600a6000858152602001908152602001600020905080600401805490508310610c01576040517f08c379a0000000000000000000000000000000000000000000000000000000008152600401610bf8906145ab565b60405180910390fd5b6000816004018481548110610c1957610c186145cb565b5b9060005260206000209060080201905081600201805490508310610c72576040517f08c379a0000000000000000000000000000000000000000000000000000000008152600401610c6990614646565b60405180910390fd5b6000826002018481548110610c8a57610c896145cb565b5b9060005260206000209060030201905080600201600081548110610cb157610cb06145cb565b5b9060005260206000200160009054906101000a900473ffffffffffffffffffffffffffffffffffffffff1673ffffffffffffffffffffffffffffffffffffffff163373ffffffffffffffffffffffffffffffffffffffff1614610d49576040517f08c379a0000000000000000000000000000000000000000000000000000000008152600401610d40906146b2565b60405180910390fd5b8160060160019054906101000a900460ff168015610d7557508160060160019054906101000a900460ff165b610db4576040517f08c379a0000000000000000000000000000000000000000000000000000000008152600401610dab9061471e565b60405180910390fd5b83826005015414610dfa576040517f08c379a0000000000000000000000000000000000000000000000000000000008152600401610df1906147b0565b60405180910390fd5b83826004015414610e40576040517f08c379a0000000000000000000000000000000000000000000000000000000008152600401610e3790614842565b60405180910390fd5b8160060160029054906101000a900460ff1615610e92576040517f08c379a0000000000000000000000000000000000000000000000000000000008152600401610e89906148ae565b60405180910390fd5b60008160020180549050905060018360060160026101000a81548160ff02191690831515021790555060008360020154905060005b8281101561107057836002018181548110610ee557610ee46145cb565b5b9060005260206000200160009054906101000a900473ffffffffffffffffffffffffffffffffffffffff1673ffffffffffffffffffffffffffffffffffffffff166108fc8484610f35919061492c565b9081150290604051600060405180830381858888f19350505050158015610f60573d6000803e3d6000fd5b50610fad846002018281548110610f7a57610f796145cb565b5b9060005260206000200160009054906101000a900473ffffffffffffffffffffffffffffffffffffffff16600854612451565b611045600854866007018054610fc29061439e565b80601f0160208091040260200160405190810160405280929190818152602001828054610fee9061439e565b801561103b5780601f106110105761010080835404028352916020019161103b565b820191906000526020600020905b81548152906001019060200180831161101e57829003601f168201915b505050505061246f565b600860008154809291906110589061495d565b919050555080806110689061495d565b915050610ec7565b505050505050505050565b60085481565b611089613290565b600a600084815260200190815260200160002060040182815481106110b1576110b06145cb565b5b9060005260206000209060080201604051806101400160405290816000820180546110db9061439e565b80601f01602080910402602001604051908101604052809291908181526020018280546111079061439e565b80156111545780601f1061112957610100808354040283529160200191611154565b820191906000526020600020905b81548152906001019060200180831161113757829003601f168201915b5050505050815260200160018201548152602001600282015481526020016003820160009054906101000a900473ffffffffffffffffffffffffffffffffffffffff1673ffffffffffffffffffffffffffffffffffffffff1673ffffffffffffffffffffffffffffffffffffffff16815260200160048201548152602001600582015481526020016006820160009054906101000a900460ff161515151581526020016006820160019054906101000a900460ff161515151581526020016006820160029054906101000a900460ff1615151515815260200160078201805461123c9061439e565b80601f01602080910402602001604051908101604052809291908181526020018280546112689061439e565b80156112b55780601f1061128a576101008083540402835291602001916112b5565b820191906000526020600020905b81548152906001019060200180831161129857829003601f168201915b505050505081525050905092915050565b6112d76112d1612390565b826124dc565b611316576040517f08c379a000000000000000000000000000000000000000000000000000000000815260040161130d90614a17565b60405180910390fd5b611321838383612571565b505050565b600b5481565b61134783838360405180602001604052806000815250611b61565b505050565b600b54831115611391576040517f08c379a00000000000000000000000000000000000000000000000000000000081526004016113889061453f565b60405180910390fd5b6000600a600085815260200190815260200160002090506000816004018054905090506000339050600034905060006040518061014001604052808881526020018581526020018381526020018473ffffffffffffffffffffffffffffffffffffffff168152602001600081526020016000815260200160001515815260200160001515815260200160001515815260200187815250905084600401819080600181540180825580915050600190039060005260206000209060080201600090919091909150600082015181600001908161146c9190614be3565b50602082015181600101556040820151816002015560608201518160030160006101000a81548173ffffffffffffffffffffffffffffffffffffffff021916908373ffffffffffffffffffffffffffffffffffffffff1602179055506080820151816004015560a0820151816005015560c08201518160060160006101000a81548160ff02191690831515021790555060e08201518160060160016101000a81548160ff0219169083151502179055506101008201518160060160026101000a81548160ff0219169083151502179055506101208201518160070190816115539190614be3565b5050505050505050505050565b60008061156c8361286a565b9050600073ffffffffffffffffffffffffffffffffffffffff168173ffffffffffffffffffffffffffffffffffffffff16036115dd576040517f08c379a00000000000000000000000000000000000000000000000000000000081526004016115d490614d01565b60405180910390fd5b80915050919050565b60095481565b60008073ffffffffffffffffffffffffffffffffffffffff168273ffffffffffffffffffffffffffffffffffffffff160361165c576040517f08c379a000000000000000000000000000000000000000000000000000000000815260040161165390614d93565b60405180910390fd5b600360008373ffffffffffffffffffffffffffffffffffffffff1673ffffffffffffffffffffffffffffffffffffffff168152602001908152602001600020549050919050565b6000600a6000838152602001908152602001600020600401805490509050919050565b600760009054906101000a900473ffffffffffffffffffffffffffffffffffffffff1681565b6060600180546116fb9061439e565b80601f01602080910402602001604051908101604052809291908181526020018280546117279061439e565b80156117745780601f1061174957610100808354040283529160200191611774565b820191906000526020600020905b81548152906001019060200180831161175757829003601f168201915b5050505050905090565b600b548311156117c3576040517f08c379a00000000000000000000000000000000000000000000000000000000081526004016117ba9061453f565b60405180910390fd5b6000600a6000858152602001908152602001600020905080600201805490508310611823576040517f08c379a000000000000000000000000000000000000000000000000000000000815260040161181a90614646565b60405180910390fd5b600081600201848154811061183b5761183a6145cb565b5b9060005260206000209060030201905080600201600081548110611862576118616145cb565b5b9060005260206000200160009054906101000a900473ffffffffffffffffffffffffffffffffffffffff1673ffffffffffffffffffffffffffffffffffffffff163373ffffffffffffffffffffffffffffffffffffffff16146118fa576040517f08c379a00000000000000000000000000000000000000000000000000000000081526004016118f1906146b2565b60405180910390fd5b80600201839080600181540180825580915050600190039060005260206000200160009091909190916101000a81548173ffffffffffffffffffffffffffffffffffffffff021916908373ffffffffffffffffffffffffffffffffffffffff1602179055505050505050565b611978611971612390565b83836128a7565b5050565b6000600a600084815260200190815260200160002060020182815481106119a6576119a56145cb565b5b906000526020600020906003020160020180549050905092915050565b6119cb6132ff565b600a600084815260200190815260200160002060020182815481106119f3576119f26145cb565b5b9060005260206000209060030201604051806060016040529081600082018054611a1c9061439e565b80601f0160208091040260200160405190810160405280929190818152602001828054611a489061439e565b8015611a955780601f10611a6a57610100808354040283529160200191611a95565b820191906000526020600020905b815481529060010190602001808311611a7857829003601f168201915b505050505081526020016001820154815260200160028201805480602002602001604051908101604052809291908181526020018280548015611b2d57602002820191906000526020600020905b8160009054906101000a900473ffffffffffffffffffffffffffffffffffffffff1673ffffffffffffffffffffffffffffffffffffffff1681526020019060010190808311611ae3575b505050505081525050905092915050565b6000600a6000838152602001908152602001600020600201805490509050919050565b611b72611b6c612390565b836124dc565b611bb1576040517f08c379a0000000000000000000000000000000000000000000000000000000008152600401611ba890614a17565b60405180910390fd5b611bbd84848484612a13565b50505050565b6000600a60008581526020019081526020016000206002018381548110611bed57611bec6145cb565b5b90600052602060002090600302016002018281548110611c1057611c0f6145cb565b5b9060005260206000200160009054906101000a900473ffffffffffffffffffffffffffffffffffffffff1690509392505050565b6060611c4f82612a6f565b9050919050565b600b54821115611c9b576040517f08c379a0000000000000000000000000000000000000000000000000000000008152600401611c929061453f565b60405180910390fd5b6000600a60008481526020019081526020016000209050600081600201805490509050611cc66132ff565b83816000018190525081816020018181525050826002018190806001815401808255809150506001900390600052602060002090600302016000909190919091506000820151816000019081611d1c9190614be3565b50602082015181600101556040820151816002019080519060200190611d43929190613320565b505050826002018281548110611d5c57611d5b6145cb565b5b9060005260206000209060030201600201339080600181540180825580915050600190039060005260206000200160009091909190916101000a81548173ffffffffffffffffffffffffffffffffffffffff021916908373ffffffffffffffffffffffffffffffffffffffff1602179055505050505050565b6000600560008473ffffffffffffffffffffffffffffffffffffffff1673ffffffffffffffffffffffffffffffffffffffff16815260200190815260200160002060008373ffffffffffffffffffffffffffffffffffffffff1673ffffffffffffffffffffffffffffffffffffffff16815260200190815260200160002060009054906101000a900460ff16905092915050565b600b54831115611eae576040517f08c379a0000000000000000000000000000000000000000000000000000000008152600401611ea59061453f565b60405180910390fd5b6000600a6000858152602001908152602001600020905080600401805490508310611f0e576040517f08c379a0000000000000000000000000000000000000000000000000000000008152600401611f05906145ab565b60405180910390fd5b6000816004018481548110611f2657611f256145cb565b5b9060005260206000209060080201905081600201805490508310611f7f576040517f08c379a0000000000000000000000000000000000000000000000000000000008152600401611f7690614646565b60405180910390fd5b8160030160009054906101000a900473ffffffffffffffffffffffffffffffffffffffff1673ffffffffffffffffffffffffffffffffffffffff163373ffffffffffffffffffffffffffffffffffffffff16148061202c57508060030160009054906101000a900473ffffffffffffffffffffffffffffffffffffffff1673ffffffffffffffffffffffffffffffffffffffff163373ffffffffffffffffffffffffffffffffffffffff16145b61206b576040517f08c379a000000000000000000000000000000000000000000000000000000000815260040161206290614dff565b60405180910390fd5b8160030160009054906101000a900473ffffffffffffffffffffffffffffffffffffffff1673ffffffffffffffffffffffffffffffffffffffff163373ffffffffffffffffffffffffffffffffffffffff16036120ed5782816005018190555060018160060160016101000a81548160ff021916908315150217905550612114565b82816004018190555060018160060160006101000a81548160ff0219169083151502179055505b5050505050565b60006001600b5461212c9190614e1f565b905060003390506000600a600084815260200190815260200160002090508381600001908161215b9190614be3565b50828160010181905550818160030160006101000a81548173ffffffffffffffffffffffffffffffffffffffff021916908373ffffffffffffffffffffffffffffffffffffffff16021790555060008160050160006101000a81548160ff02191690831515021790555080600a6000858152602001908152602001600020600082018160000190816121ed9190614e69565b5060018201548160010155600282018160020190805461220e9291906133aa565b506003820160009054906101000a900473ffffffffffffffffffffffffffffffffffffffff168160030160006101000a81548173ffffffffffffffffffffffffffffffffffffffff021916908373ffffffffffffffffffffffffffffffffffffffff160217905550600482018160040190805461228c929190613438565b506005820160009054906101000a900460ff168160050160006101000a81548160ff021916908315150217905550905050600b60008154809291906122d09061495d565b919050555050505050565b60007f01ffc9a7000000000000000000000000000000000000000000000000000000007bffffffffffffffffffffffffffffffffffffffffffffffffffffffff1916827bffffffffffffffffffffffffffffffffffffffffffffffffffffffff1916149050919050565b61234e81612b81565b61238d576040517f08c379a000000000000000000000000000000000000000000000000000000000815260040161238490614d01565b60405180910390fd5b50565b600033905090565b816004600083815260200190815260200160002060006101000a81548173ffffffffffffffffffffffffffffffffffffffff021916908373ffffffffffffffffffffffffffffffffffffffff160217905550808273ffffffffffffffffffffffffffffffffffffffff1661240b83611560565b73ffffffffffffffffffffffffffffffffffffffff167f8c5be1e5ebec7d5bd14f71427d1e84f3dd0314c0f7b2291e5b200ac8c7c3b92560405160405180910390a45050565b61246b828260405180602001604052806000815250612bc2565b5050565b61247882612b81565b6124b7576040517f08c379a00000000000000000000000000000000000000000000000000000000081526004016124ae90614fc3565b60405180910390fd5b806006600084815260200190815260200160002090816124d79190614be3565b505050565b6000806124e883611560565b90508073ffffffffffffffffffffffffffffffffffffffff168473ffffffffffffffffffffffffffffffffffffffff16148061252a57506125298185611dd5565b5b8061256857508373ffffffffffffffffffffffffffffffffffffffff166125508461091a565b73ffffffffffffffffffffffffffffffffffffffff16145b91505092915050565b8273ffffffffffffffffffffffffffffffffffffffff1661259182611560565b73ffffffffffffffffffffffffffffffffffffffff16146125e7576040517f08c379a00000000000000000000000000000000000000000000000000000000081526004016125de90615055565b60405180910390fd5b600073ffffffffffffffffffffffffffffffffffffffff168273ffffffffffffffffffffffffffffffffffffffff1603612656576040517f08c379a000000000000000000000000000000000000000000000000000000000815260040161264d906150e7565b60405180910390fd5b6126638383836001612c1d565b8273ffffffffffffffffffffffffffffffffffffffff1661268382611560565b73ffffffffffffffffffffffffffffffffffffffff16146126d9576040517f08c379a00000000000000000000000000000000000000000000000000000000081526004016126d090615055565b60405180910390fd5b6004600082815260200190815260200160002060006101000a81549073ffffffffffffffffffffffffffffffffffffffff02191690556001600360008573ffffffffffffffffffffffffffffffffffffffff1673ffffffffffffffffffffffffffffffffffffffff168152602001908152602001600020600082825403925050819055506001600360008473ffffffffffffffffffffffffffffffffffffffff1673ffffffffffffffffffffffffffffffffffffffff16815260200190815260200160002060008282540192505081905550816002600083815260200190815260200160002060006101000a81548173ffffffffffffffffffffffffffffffffffffffff021916908373ffffffffffffffffffffffffffffffffffffffff160217905550808273ffffffffffffffffffffffffffffffffffffffff168473ffffffffffffffffffffffffffffffffffffffff167fddf252ad1be2c89b69c2b068fc378daa952ba7f163c4a11628f55a4df523b3ef60405160405180910390a46128658383836001612c23565b505050565b60006002600083815260200190815260200160002060009054906101000a900473ffffffffffffffffffffffffffffffffffffffff169050919050565b8173ffffffffffffffffffffffffffffffffffffffff168373ffffffffffffffffffffffffffffffffffffffff1603612915576040517f08c379a000000000000000000000000000000000000000000000000000000000815260040161290c90615153565b60405180910390fd5b80600560008573ffffffffffffffffffffffffffffffffffffffff1673ffffffffffffffffffffffffffffffffffffffff16815260200190815260200160002060008473ffffffffffffffffffffffffffffffffffffffff1673ffffffffffffffffffffffffffffffffffffffff16815260200190815260200160002060006101000a81548160ff0219169083151502179055508173ffffffffffffffffffffffffffffffffffffffff168373ffffffffffffffffffffffffffffffffffffffff167f17307eab39ab6107e8899845ad3d59bd9653f200f220920489ca2b5937696c3183604051612a06919061384d565b60405180910390a3505050565b612a1e848484612571565b612a2a84848484612c29565b612a69576040517f08c379a0000000000000000000000000000000000000000000000000000000008152600401612a60906151e5565b60405180910390fd5b50505050565b6060612a7a82612345565b6000600660008481526020019081526020016000208054612a9a9061439e565b80601f0160208091040260200160405190810160405280929190818152602001828054612ac69061439e565b8015612b135780601f10612ae857610100808354040283529160200191612b13565b820191906000526020600020905b815481529060010190602001808311612af657829003601f168201915b505050505090506000612b24612db0565b90506000815103612b39578192505050612b7c565b600082511115612b6e578082604051602001612b56929190615241565b60405160208183030381529060405292505050612b7c565b612b7784612dc7565b925050505b919050565b60008073ffffffffffffffffffffffffffffffffffffffff16612ba38361286a565b73ffffffffffffffffffffffffffffffffffffffff1614159050919050565b612bcc8383612e2f565b612bd96000848484612c29565b612c18576040517f08c379a0000000000000000000000000000000000000000000000000000000008152600401612c0f906151e5565b60405180910390fd5b505050565b50505050565b50505050565b6000612c4a8473ffffffffffffffffffffffffffffffffffffffff1661304c565b15612da3578373ffffffffffffffffffffffffffffffffffffffff1663150b7a02612c73612390565b8786866040518563ffffffff1660e01b8152600401612c9594939291906152ba565b6020604051808303816000875af1925050508015612cd157506040513d601f19601f82011682018060405250810190612cce919061531b565b60015b612d53573d8060008114612d01576040519150601f19603f3d011682016040523d82523d6000602084013e612d06565b606091505b506000815103612d4b576040517f08c379a0000000000000000000000000000000000000000000000000000000008152600401612d42906151e5565b60405180910390fd5b805181602001fd5b63150b7a0260e01b7bffffffffffffffffffffffffffffffffffffffffffffffffffffffff1916817bffffffffffffffffffffffffffffffffffffffffffffffffffffffff191614915050612da8565b600190505b949350505050565b606060405180602001604052806000815250905090565b6060612dd282612345565b6000612ddc612db0565b90506000815111612dfc5760405180602001604052806000815250612e27565b80612e068461306f565b604051602001612e17929190615241565b6040516020818303038152906040525b915050919050565b600073ffffffffffffffffffffffffffffffffffffffff168273ffffffffffffffffffffffffffffffffffffffff1603612e9e576040517f08c379a0000000000000000000000000000000000000000000000000000000008152600401612e9590615394565b60405180910390fd5b612ea781612b81565b15612ee7576040517f08c379a0000000000000000000000000000000000000000000000000000000008152600401612ede90615400565b60405180910390fd5b612ef5600083836001612c1d565b612efe81612b81565b15612f3e576040517f08c379a0000000000000000000000000000000000000000000000000000000008152600401612f3590615400565b60405180910390fd5b6001600360008473ffffffffffffffffffffffffffffffffffffffff1673ffffffffffffffffffffffffffffffffffffffff16815260200190815260200160002060008282540192505081905550816002600083815260200190815260200160002060006101000a81548173ffffffffffffffffffffffffffffffffffffffff021916908373ffffffffffffffffffffffffffffffffffffffff160217905550808273ffffffffffffffffffffffffffffffffffffffff16600073ffffffffffffffffffffffffffffffffffffffff167fddf252ad1be2c89b69c2b068fc378daa952ba7f163c4a11628f55a4df523b3ef60405160405180910390a4613048600083836001612c23565b5050565b6000808273ffffffffffffffffffffffffffffffffffffffff163b119050919050565b60606000600161307e8461313d565b01905060008167ffffffffffffffff81111561309d5761309c613d25565b5b6040519080825280601f01601f1916602001820160405280156130cf5781602001600182028036833780820191505090505b509050600082602001820190505b600115613132578080600190039150507f3031323334353637383961626364656600000000000000000000000000000000600a86061a8153600a8581613126576131256148ce565b5b049450600085036130dd575b819350505050919050565b600080600090507a184f03e93ff9f4daa797ed6e38ed64bf6a1f010000000000000000831061319b577a184f03e93ff9f4daa797ed6e38ed64bf6a1f0100000000000000008381613191576131906148ce565b5b0492506040810190505b6d04ee2d6d415b85acef810000000083106131d8576d04ee2d6d415b85acef810000000083816131ce576131cd6148ce565b5b0492506020810190505b662386f26fc10000831061320757662386f26fc1000083816131fd576131fc6148ce565b5b0492506010810190505b6305f5e1008310613230576305f5e1008381613226576132256148ce565b5b0492506008810190505b612710831061325557612710838161324b5761324a6148ce565b5b0492506004810190505b60648310613278576064838161326e5761326d6148ce565b5b0492506002810190505b600a8310613287576001810190505b80915050919050565b604051806101400160405280606081526020016000815260200160008152602001600073ffffffffffffffffffffffffffffffffffffffff1681526020016000815260200160008152602001600015158152602001600015158152602001600015158152602001606081525090565b60405180606001604052806060815260200160008152602001606081525090565b828054828255906000526020600020908101928215613399579160200282015b828111156133985782518260006101000a81548173ffffffffffffffffffffffffffffffffffffffff021916908373ffffffffffffffffffffffffffffffffffffffff16021790555091602001919060010190613340565b5b5090506133a691906135d0565b5090565b8280548282559060005260206000209060030281019282156134275760005260206000209160030282015b82811115613426578282600082018160000190816133f39190614e69565b506001820154816001015560028201816002019080546134149291906135ed565b505050916003019190600301906133d5565b5b509050613434919061363f565b5090565b8280548282559060005260206000209060080281019282156135bf5760005260206000209160080282015b828111156135be578282600082018160000190816134819190614e69565b5060018201548160010155600282015481600201556003820160009054906101000a900473ffffffffffffffffffffffffffffffffffffffff168160030160006101000a81548173ffffffffffffffffffffffffffffffffffffffff021916908373ffffffffffffffffffffffffffffffffffffffff16021790555060048201548160040155600582015481600501556006820160009054906101000a900460ff168160060160006101000a81548160ff0219169083151502179055506006820160019054906101000a900460ff168160060160016101000a81548160ff0219169083151502179055506006820160029054906101000a900460ff168160060160026101000a81548160ff021916908315150217905550600782018160070190816135ac9190614e69565b50505091600801919060080190613463565b5b5090506135cc919061367e565b5090565b5b808211156135e95760008160009055506001016135d1565b5090565b82805482825590600052602060002090810192821561362e5760005260206000209182015b8281111561362d578254825591600101919060010190613612565b5b50905061363b91906135d0565b5090565b5b8082111561367a57600080820160006136599190613738565b60018201600090556002820160006136719190613778565b50600301613640565b5090565b5b8082111561373457600080820160006136989190613738565b600182016000905560028201600090556003820160006101000a81549073ffffffffffffffffffffffffffffffffffffffff0219169055600482016000905560058201600090556006820160006101000a81549060ff02191690556006820160016101000a81549060ff02191690556006820160026101000a81549060ff021916905560078201600061372b9190613738565b5060080161367f565b5090565b5080546137449061439e565b6000825580601f106137565750613775565b601f01602090049060005260206000209081019061377491906135d0565b5b50565b508054600082559060005260206000209081019061379691906135d0565b50565b6000604051905090565b600080fd5b600080fd5b60007fffffffff0000000000000000000000000000000000000000000000000000000082169050919050565b6137e2816137ad565b81146137ed57600080fd5b50565b6000813590506137ff816137d9565b92915050565b60006020828403121561381b5761381a6137a3565b5b6000613829848285016137f0565b91505092915050565b60008115159050919050565b61384781613832565b82525050565b6000602082019050613862600083018461383e565b92915050565b600081519050919050565b600082825260208201905092915050565b60005b838110156138a2578082015181840152602081019050613887565b60008484015250505050565b6000601f19601f8301169050919050565b60006138ca82613868565b6138d48185613873565b93506138e4818560208601613884565b6138ed816138ae565b840191505092915050565b6000602082019050818103600083015261391281846138bf565b905092915050565b6000819050919050565b61392d8161391a565b811461393857600080fd5b50565b60008135905061394a81613924565b92915050565b600060208284031215613966576139656137a3565b5b60006139748482850161393b565b91505092915050565b600073ffffffffffffffffffffffffffffffffffffffff82169050919050565b60006139a88261397d565b9050919050565b6139b88161399d565b82525050565b60006020820190506139d360008301846139af565b92915050565b6139e28161399d565b81146139ed57600080fd5b50565b6000813590506139ff816139d9565b92915050565b60008060408385031215613a1c57613a1b6137a3565b5b6000613a2a858286016139f0565b9250506020613a3b8582860161393b565b9150509250929050565b613a4e8161391a565b82525050565b60006080820190508181036000830152613a6e81876138bf565b9050613a7d6020830186613a45565b613a8a60408301856139af565b613a97606083018461383e565b95945050505050565b600080600060608486031215613ab957613ab86137a3565b5b6000613ac78682870161393b565b9350506020613ad88682870161393b565b9250506040613ae98682870161393b565b9150509250925092565b6000602082019050613b086000830184613a45565b92915050565b60008060408385031215613b2557613b246137a3565b5b6000613b338582860161393b565b9250506020613b448582860161393b565b9150509250929050565b600082825260208201905092915050565b6000613b6a82613868565b613b748185613b4e565b9350613b84818560208601613884565b613b8d816138ae565b840191505092915050565b613ba18161391a565b82525050565b613bb08161399d565b82525050565b613bbf81613832565b82525050565b6000610140830160008301518482036000860152613be38282613b5f565b9150506020830151613bf86020860182613b98565b506040830151613c0b6040860182613b98565b506060830151613c1e6060860182613ba7565b506080830151613c316080860182613b98565b5060a0830151613c4460a0860182613b98565b5060c0830151613c5760c0860182613bb6565b5060e0830151613c6a60e0860182613bb6565b50610100830151613c7f610100860182613bb6565b50610120830151848203610120860152613c998282613b5f565b9150508091505092915050565b60006020820190508181036000830152613cc08184613bc5565b905092915050565b600080600060608486031215613ce157613ce06137a3565b5b6000613cef868287016139f0565b9350506020613d00868287016139f0565b9250506040613d118682870161393b565b9150509250925092565b600080fd5b600080fd5b7f4e487b7100000000000000000000000000000000000000000000000000000000600052604160045260246000fd5b613d5d826138ae565b810181811067ffffffffffffffff82111715613d7c57613d7b613d25565b5b80604052505050565b6000613d8f613799565b9050613d9b8282613d54565b919050565b600067ffffffffffffffff821115613dbb57613dba613d25565b5b613dc4826138ae565b9050602081019050919050565b82818337600083830152505050565b6000613df3613dee84613da0565b613d85565b905082815260208101848484011115613e0f57613e0e613d20565b5b613e1a848285613dd1565b509392505050565b600082601f830112613e3757613e36613d1b565b5b8135613e47848260208601613de0565b91505092915050565b600080600060608486031215613e6957613e686137a3565b5b6000613e778682870161393b565b935050602084013567ffffffffffffffff811115613e9857613e976137a8565b5b613ea486828701613e22565b925050604084013567ffffffffffffffff811115613ec557613ec46137a8565b5b613ed186828701613e22565b9150509250925092565b600060208284031215613ef157613ef06137a3565b5b6000613eff848285016139f0565b91505092915050565b6000613f138261397d565b9050919050565b613f2381613f08565b8114613f2e57600080fd5b50565b600081359050613f4081613f1a565b92915050565b600080600060608486031215613f5f57613f5e6137a3565b5b6000613f6d8682870161393b565b9350506020613f7e8682870161393b565b9250506040613f8f86828701613f31565b9150509250925092565b613fa281613832565b8114613fad57600080fd5b50565b600081359050613fbf81613f99565b92915050565b60008060408385031215613fdc57613fdb6137a3565b5b6000613fea858286016139f0565b9250506020613ffb85828601613fb0565b9150509250929050565b600081519050919050565b600082825260208201905092915050565b6000819050602082019050919050565b61403a81613f08565b82525050565b600061404c8383614031565b60208301905092915050565b6000602082019050919050565b600061407082614005565b61407a8185614010565b935061408583614021565b8060005b838110156140b657815161409d8882614040565b97506140a883614058565b925050600181019050614089565b5085935050505092915050565b600060608301600083015184820360008601526140e08282613b5f565b91505060208301516140f56020860182613b98565b506040830151848203604086015261410d8282614065565b9150508091505092915050565b6000602082019050818103600083015261413481846140c3565b905092915050565b600067ffffffffffffffff82111561415757614156613d25565b5b614160826138ae565b9050602081019050919050565b600061418061417b8461413c565b613d85565b90508281526020810184848401111561419c5761419b613d20565b5b6141a7848285613dd1565b509392505050565b600082601f8301126141c4576141c3613d1b565b5b81356141d484826020860161416d565b91505092915050565b600080600080608085870312156141f7576141f66137a3565b5b6000614205878288016139f0565b9450506020614216878288016139f0565b93505060406142278782880161393b565b925050606085013567ffffffffffffffff811115614248576142476137a8565b5b614254878288016141af565b91505092959194509250565b61426981613f08565b82525050565b60006020820190506142846000830184614260565b92915050565b600080604083850312156142a1576142a06137a3565b5b60006142af8582860161393b565b925050602083013567ffffffffffffffff8111156142d0576142cf6137a8565b5b6142dc85828601613e22565b9150509250929050565b600080604083850312156142fd576142fc6137a3565b5b600061430b858286016139f0565b925050602061431c858286016139f0565b9150509250929050565b60006020828403121561433c5761433b6137a3565b5b600082013567ffffffffffffffff81111561435a576143596137a8565b5b61436684828501613e22565b91505092915050565b7f4e487b7100000000000000000000000000000000000000000000000000000000600052602260045260246000fd5b600060028204905060018216806143b657607f821691505b6020821081036143c9576143c861436f565b5b50919050565b7f4552433732313a20617070726f76616c20746f2063757272656e74206f776e6560008201527f7200000000000000000000000000000000000000000000000000000000000000602082015250565b600061442b602183613873565b9150614436826143cf565b604082019050919050565b6000602082019050818103600083015261445a8161441e565b9050919050565b7f4552433732313a20617070726f76652063616c6c6572206973206e6f7420746f60008201527f6b656e206f776e6572206f7220617070726f76656420666f7220616c6c000000602082015250565b60006144bd603d83613873565b91506144c882614461565b604082019050919050565b600060208201905081810360008301526144ec816144b0565b9050919050565b7f6e6f7420612076616c6964206576656e74496400000000000000000000000000600082015250565b6000614529601383613873565b9150614534826144f3565b602082019050919050565b600060208201905081810360008301526145588161451c565b9050919050565b7f6e6f7420612076616c6964206177617264496400000000000000000000000000600082015250565b6000614595601383613873565b91506145a08261455f565b602082019050919050565b600060208201905081810360008301526145c481614588565b9050919050565b7f4e487b7100000000000000000000000000000000000000000000000000000000600052603260045260246000fd5b7f6e6f7420612076616c6964207465616d49640000000000000000000000000000600082015250565b6000614630601283613873565b915061463b826145fa565b602082019050919050565b6000602082019050818103600083015261465f81614623565b9050919050565b7f796f7520617265206e6f74207465616d206c6561646572000000000000000000600082015250565b600061469c601783613873565b91506146a782614666565b602082019050919050565b600060208201905081810360008301526146cb8161468f565b9050919050565b7f6177617264206e6f742064657369676e61746564207965740000000000000000600082015250565b6000614708601883613873565b9150614713826146d2565b602082019050919050565b60006020820190508181036000830152614737816146fb565b9050919050565b7f796f752077657265206e6f742063686f73656e20627920746865206f7267616e60008201527f697a657200000000000000000000000000000000000000000000000000000000602082015250565b600061479a602483613873565b91506147a58261473e565b604082019050919050565b600060208201905081810360008301526147c98161478d565b9050919050565b7f796f752077657265206e6f742063686f73656e206279207468652073706f6e7360008201527f6f72000000000000000000000000000000000000000000000000000000000000602082015250565b600061482c602283613873565b9150614837826147d0565b604082019050919050565b6000602082019050818103600083015261485b8161481f565b9050919050565b7f61776172642077617320616c72656164792072656c6561736564000000000000600082015250565b6000614898601a83613873565b91506148a382614862565b602082019050919050565b600060208201905081810360008301526148c78161488b565b9050919050565b7f4e487b7100000000000000000000000000000000000000000000000000000000600052601260045260246000fd5b7f4e487b7100000000000000000000000000000000000000000000000000000000600052601160045260246000fd5b60006149378261391a565b91506149428361391a565b925082614952576149516148ce565b5b828204905092915050565b60006149688261391a565b91507fffffffffffffffffffffffffffffffffffffffffffffffffffffffffffffffff820361499a576149996148fd565b5b600182019050919050565b7f4552433732313a2063616c6c6572206973206e6f7420746f6b656e206f776e6560008201527f72206f7220617070726f76656400000000000000000000000000000000000000602082015250565b6000614a01602d83613873565b9150614a0c826149a5565b604082019050919050565b60006020820190508181036000830152614a30816149f4565b9050919050565b60008190508160005260206000209050919050565b60006020601f8301049050919050565b600082821b905092915050565b600060088302614a997fffffffffffffffffffffffffffffffffffffffffffffffffffffffffffffffff82614a5c565b614aa38683614a5c565b95508019841693508086168417925050509392505050565b6000819050919050565b6000614ae0614adb614ad68461391a565b614abb565b61391a565b9050919050565b6000819050919050565b614afa83614ac5565b614b0e614b0682614ae7565b848454614a69565b825550505050565b600090565b614b23614b16565b614b2e818484614af1565b505050565b5b81811015614b5257614b47600082614b1b565b600181019050614b34565b5050565b601f821115614b9757614b6881614a37565b614b7184614a4c565b81016020851015614b80578190505b614b94614b8c85614a4c565b830182614b33565b50505b505050565b600082821c905092915050565b6000614bba60001984600802614b9c565b1980831691505092915050565b6000614bd38383614ba9565b9150826002028217905092915050565b614bec82613868565b67ffffffffffffffff811115614c0557614c04613d25565b5b614c0f825461439e565b614c1a828285614b56565b600060209050601f831160018114614c4d5760008415614c3b578287015190505b614c458582614bc7565b865550614cad565b601f198416614c5b86614a37565b60005b82811015614c8357848901518255600182019150602085019450602081019050614c5e565b86831015614ca05784890151614c9c601f891682614ba9565b8355505b6001600288020188555050505b505050505050565b7f4552433732313a20696e76616c696420746f6b656e2049440000000000000000600082015250565b6000614ceb601883613873565b9150614cf682614cb5565b602082019050919050565b60006020820190508181036000830152614d1a81614cde565b9050919050565b7f4552433732313a2061646472657373207a65726f206973206e6f74206120766160008201527f6c6964206f776e65720000000000000000000000000000000000000000000000602082015250565b6000614d7d602983613873565b9150614d8882614d21565b604082019050919050565b60006020820190508181036000830152614dac81614d70565b9050919050565b7f6e6f74206f7267616e697a6572206f722073706f6e736f720000000000000000600082015250565b6000614de9601883613873565b9150614df482614db3565b602082019050919050565b60006020820190508181036000830152614e1881614ddc565b9050919050565b6000614e2a8261391a565b9150614e358361391a565b9250828201905080821115614e4d57614e4c6148fd565b5b92915050565b600081549050614e628161439e565b9050919050565b818103614e77575050614f4f565b614e8082614e53565b67ffffffffffffffff811115614e9957614e98613d25565b5b614ea3825461439e565b614eae828285614b56565b6000601f831160018114614edd5760008415614ecb578287015490505b614ed58582614bc7565b865550614f48565b601f198416614eeb87614a37565b9650614ef686614a37565b60005b82811015614f1e57848901548255600182019150600185019450602081019050614ef9565b86831015614f3b5784890154614f37601f891682614ba9565b8355505b6001600288020188555050505b5050505050505b565b7f45524337323155524953746f726167653a2055524920736574206f66206e6f6e60008201527f6578697374656e7420746f6b656e000000000000000000000000000000000000602082015250565b6000614fad602e83613873565b9150614fb882614f51565b604082019050919050565b60006020820190508181036000830152614fdc81614fa0565b9050919050565b7f4552433732313a207472616e736665722066726f6d20696e636f72726563742060008201527f6f776e6572000000000000000000000000000000000000000000000000000000602082015250565b600061503f602583613873565b915061504a82614fe3565b604082019050919050565b6000602082019050818103600083015261506e81615032565b9050919050565b7f4552433732313a207472616e7366657220746f20746865207a65726f2061646460008201527f7265737300000000000000000000000000000000000000000000000000000000602082015250565b60006150d1602483613873565b91506150dc82615075565b604082019050919050565b60006020820190508181036000830152615100816150c4565b9050919050565b7f4552433732313a20617070726f766520746f2063616c6c657200000000000000600082015250565b600061513d601983613873565b915061514882615107565b602082019050919050565b6000602082019050818103600083015261516c81615130565b9050919050565b7f4552433732313a207472616e7366657220746f206e6f6e20455243373231526560008201527f63656976657220696d706c656d656e7465720000000000000000000000000000602082015250565b60006151cf603283613873565b91506151da82615173565b604082019050919050565b600060208201905081810360008301526151fe816151c2565b9050919050565b600081905092915050565b600061521b82613868565b6152258185615205565b9350615235818560208601613884565b80840191505092915050565b600061524d8285615210565b91506152598284615210565b91508190509392505050565b600081519050919050565b600082825260208201905092915050565b600061528c82615265565b6152968185615270565b93506152a6818560208601613884565b6152af816138ae565b840191505092915050565b60006080820190506152cf60008301876139af565b6152dc60208301866139af565b6152e96040830185613a45565b81810360608301526152fb8184615281565b905095945050505050565b600081519050615315816137d9565b92915050565b600060208284031215615331576153306137a3565b5b600061533f84828501615306565b91505092915050565b7f4552433732313a206d696e7420746f20746865207a65726f2061646472657373600082015250565b600061537e602083613873565b915061538982615348565b602082019050919050565b600060208201905081810360008301526153ad81615371565b9050919050565b7f4552433732313a20746f6b656e20616c7265616479206d696e74656400000000600082015250565b60006153ea601c83613873565b91506153f5826153b4565b602082019050919050565b60006020820190508181036000830152615419816153dd565b905091905056fea264697066735822122068c03a5e18561cf79ea2afc8e18fff5f61c0a50fef81beed3358ba3424eea6ba64736f6c63430008120033",
  "linkReferences": {},
  "deployedLinkReferences": {}
}